:060000000A128A11122809
:10000800FE00030EF0000408F1000A08F200831253
:1000180003137F08F3000A128A15912D0A128A1118
:1000280015288313B930FD000C30FE00AA30FF00FC
:10003800AF3084000A128A15FC2483160313B90111
:10004800BA01BB01BC01BD01BE0183120313EF015C
:10005800F701F801F90183010A128A15B42C8316F5
:100068000313A8006C30A0002008A30001308312FD
:100078000313EB07FF306B0784000A128A150A2066
:100088000A128A1183160313A0002008AB002B085C
:100098000319CC2925302B0603195E282B08A0004C
:1000A800280884002008831380000130A00020085D
:1000B800A8073A28A901AA01A501831203136B080E
:1000C80084000A128A150A200A128A110A128A154D
:1000D800CC240A128A11031CC32883160313A9010E
:1000E800AA010A3083120313A0000030A10083166E
:1000F80003132A0883120313A30083160313290882
:1001080083120313A2000A128A156E250A128A1195
:1001180083120313210883160313AA0083120313FF
:10012800200883160313A900831203136B088400A5
:100138000A128A150A200A128A11D03E831603135E
:10014800A000FF3003180030A1002008A9070318F9
:10015800AA0A2108AA070130A00020088312031365
:10016800EB076B0884000A128A150A200A128A1102
:100178000A128A15CC240A128A110318752801302C
:1001880083120313EB07FF306B0784000A128A15EA
:100198000A200A128A1183160313AB00003A0319C6
:1001A800CC29643A0319DC280D3A0319DC283A28CB
:1001B800831603132308840083130008A600840A07
:1001C8000008A7000230A0002008A307A71FF528F1
:1001D8000330A0002008A504A609A709A60A031948
:1001E800A70AAB01AB0A05302B0603191C292B08FB
:1001F800A0002007013E84000A128A150A200A126C
:100208008A11A1000A128A150A200A128A11A2006C
:1002180022082702031D122921082602031C1C2973
:100228000130A0002008AB0705302B06031DFB2872
:1002380029082A0403192A292508033903192A2910
:10024800FF30A9070318AA0AFF30AA072B08A00045
:10025800A101A01BA1032108803AA2002A08803A24
:100268002202031D39292908200203184929831667
:1002780003132B08A000A101A01BA1032008A902B9
:100288002108031CAA03AA024D2983160313A901F6
:10029800AA0129082A04031966292030A000280881
:1002A80084002008831380000130A0002008A807DC
:1002B800FF30A9070318AA0AFF30AA0729082A0449
:1002C800031D512925080339031975292D30A0006C
:1002D800280884002008831380000130A00020082B
:1002E800A8072B08A0002008A400FF30A0002008C1
:1002F800A407240A03193A280A3083120313A70013
:100308000030A800831603132408A0002007013E2C
:1003180084000A128A150A200A128A11831203130A
:10032800A0000A128A150A200A128A11A10083164F
:100338000313270883120313A30083160313260845
:1003480083120313A2000A128A151E260A128A11A2
:10035800831203132108AA002008A9000A128A118F
:10036800CB270A128A11831203132708303E8316FB
:100378000313A1002108AB002B08A0002808840063
:100388002008831380000130A0002008A8077929DD
:10039800831603132808840083138001080083123E
:1003A80003134908CF004A08D0004B08D1000310B6
:1003B800500D510DD2005208D5004C08CF004D0801
:1003C800D0004E08D1000310500D510DD200520834
:1003D800D40055080319FC29540855020318032AA8
:1003E8005503FF3A5407CF0019304F02031C032A64
:1003F8004C08C9004D08CA004E08CB000800540834
:1004080003190800550854020318122A5403FF3A26
:100418005507CF0019304F02031808000630CF00E7
:100428004F08D300CB1BD317CE1B5317CA17FF3067
:10043800C905FF30CA050030CB05CD17FF30CC0504
:10044800FF30CD050030CE05540855020318522A56
:1004580001300310CC0DCD0DCE0DFF3E031D2D2A0E
:100468000130D4025408550603194D2A0130D3022D
:100478005308073903194D2A2C2A01300310CB0CD5
:10048800CA0CC90CFF3E031D422A0130CF004F0899
:10049800D5075508540603197B2A412A55085402E2
:1004A80003187B2A01300310C90DCA0DCB0DFF3E7E
:1004B800031D572A0130D502540855060319772A17
:1004C8000130D302530807390319772A562A013015
:1004D8000310CE0CCD0CCC0CFF3E031D6C2A013052
:1004E800CF004F08D40755085406031D6B2AD31FA5
:1004F8008D2AFF30C906FF30CA06FF30CB0601300F
:10050800C907003003180130CA070030031801304A
:10051800CB07531F9F2AFF30CC06FF30CD06FF3094
:10052800CE060130CC07003003180130CD0700306B
:1005380003180130CE07D3014908CC074A08031134
:1005480003184A0A031DCD074B08031103184B0A69
:10055800031DCE07CE1FC22AFF30CC06FF30CD06C2
:10056800FF30CE060130CC07003003180130CD072C
:10057800003003180130CE07D301D30A4C08A0007D
:100588004D08A1004E08A2005508CF004F08A3004F
:100598005308D0005008A4000A128A114626831274
:1005A80003132008C9002108CA002208CB0008004C
:1005B800073083120313E5007C30E400E40BE22AE1
:1005C800E50BE22A0000831203139F140C1FEA2A8A
:1005D800831603131E0883120313E4006408F7004C
:1005E8001E08E4006408F800E901EA016A08803A94
:1005F800FF0080307F02031D032B0A3069020318B5
:10060800BA2B770883160313B9070318BA0A7808B0
:10061800BA0709308312031369066A04031DA92B5C
:100628000B30A0000030A100831603133A08831290
:100638000313A30083160313390883120313A200BC
:100648000A128A151E260A128A1183120313210818
:1006580083160313BA0083120313200883160313A7
:10066800B9003A0883120313A60083160313390846
:1006780083120313A5000A128A1509250A128A1182
:10068800831203132508AC002608AD002708AE0026
:100698004030A9009C30AA004530AB000A128A11EC
:1006A800BE230A128A11831203132908BC002A08E0
:1006B800BD002B08BE00C030B9007F30BA004430FE
:1006C800BB000A128A1191240A128A118312031399
:1006D8003908CC003A08CD003B08CE000030C900EC
:1006E800FA30CA00C330CB000A128A11D3210A1289
:1006F8008A11831203134908E6004A08E7004B08E9
:10070800E8006608BC006708BD006808BE00003045
:10071800B9002030BA004130BB000A128A11912476
:100728000A128A11831203133908D6003A08D7002F
:100738003B08D8000A128A1149250A128A11831225
:1007480003135608E4006408EF000130E9070318B2
:10075800EA0A0030EA076A08803AFF0080307F0220
:10076800031DB82B0A306902031C052B83120313DF
:100778006F080800831203132908AF002A08B00085
:100788002B08B1000310300D310DB2003208B30050
:100798003308031DD62B0030A9000030AA00003012
:1007A800AB0008002C08AF002D08B0002E08B100DF
:1007B8000310300D310DB2003208B8003808031D9F
:1007C800EC2B0030A9000030AA000030AB00080074
:1007D80038087B3EAF002F08B3072908AF002A0866
:1007E800B0002B08B10010300310B10CB00CAF0CE6
:1007F800FF3E031DF82B2F08B2003208B8002C0862
:10080800AF002D08B0002E08B10010300310B10C55
:10081800B00CAF0CFF3E031D0A2C2F08B2003208A3
:10082800B8068030AF002F08B805AA17AD17FF30FB
:10083800AC05FF30AD050030AE050030B400003027
:10084800B5000030B6000730AF002F08B700291CEC
:100858003B2C2C08B4072D08031103182D0A031D7F
:10086800B5072E08031103182E0A031DB607013019
:100878000310AB0CAA0CA90CFF3E031D3C2C013045
:100888000310AC0DAD0DAE0DFF3E031D442C013021
:10089800B702031D2B2C0930AF002F08B700291C05
:1008A800632C2C08B4072D08031103182D0A031D07
:1008B800B5072E08031103182E0A031DB6070130C9
:1008C8000310AB0CAA0CA90CFF3E031D642C0130CD
:1008D8000310B60CB50CB40CFF3E031D6C2C013094
:1008E800B702031D532C3408A0003508A1003608B0
:1008F800A2003308AF002F08A3003808B000300862
:10090800A4000A128A114626831203132008A9009C
:100918002108AA002208AB000800831203133C0830
:10092800BF003D08C0003E08C1000310400D410D46
:10093800C2004208C7004708031DA92C0030B900AF
:100948000030BA000030BB0008003908BF003A0880
:10095800C0003B08C1000310400D410DC200420811
:10096800C8004808031DBF2C0030B9000030BA0089
:100978000030BB0008000030C4000030C500003063
:10098800C60089304807BF003F08C7023C08BF00BF
:100998003D08C0003E08C10010300310C10CC00C57
:1009A800BF0CFF3E031DD12C3F08C2004208C800FF
:1009B8003908BF003A08C0003B08C10010300310D6
:1009C800C10CC00CBF0CFF3E031DE32C3F08C20046
:1009D8004208C8068030BF003F08C805BD17FF3071
:1009E800BC05FF30BD050030BE05BA17FF30B9059C
:1009F800FF30BA050030BB051830BF003F08C30000
:100A080001300310C40DC50DC60DFF3E031D052D95
:100A18003B083E02031D162D3A083D02031D162D04
:100A280039083C02031C232D3908BC023A08031C70
:100A38003A0FBD023B08031C3B0ABE0244140130B6
:100A48000310BC0DBD0DBE0DFF3E031D242D01304E
:100A5800C302031D042D4408A0004508A100460850
:100A6800A2004708BF003F08A3004808C00040088C
:100A7800A4000A128A114626831203132008B9001B
:100A88002108BA002208BB00080083120313560885
:100A9800DA005708DB005808DC0003105B0D5C0D1A
:100AA800DD005D08E3006308031D632D0030D900F5
:100AB8000030D8000030D7000030D60008005608B3
:100AC800DA005708DB005808DC0017300310DC0C8C
:100AD800DB0CDA0CFF3E031D6A2D5A08DD005D08A9
:100AE800DE00D717FF30D605FF30D7050030D80510
:100AF8005608DF005708E0005808E100E2018E3090
:100B0800E302E31FA52D6308803A8F3E0318952D55
:100B18000030D9000030D8000030D7000030D600AF
:100B2800080001300310E20CE10CE00CDF0CFF3E82
:100B3800031D962D0130DA005A08E3070319C02D6A
:100B4800952D18306302031CBD2D0030D9000030EC
:100B5800D8000030D7000030D60008000130DA0095
:100B68000310DF0DE00DE10DE20DDA0BB42D0130BD
:100B7800E3026308031DB22D5E080319CE2DDF09B9
:100B8800E009E109E209DF0A0319E00A0319E10AA9
:100B98000319E20A6208D9006108D8006008D70082
:100BA8005F08D6000800003083120313AF0000303E
:100BB800AE000030AD006430AC0083160313120899
:100BC80083120313BD00BE010310BD0DBE0D03103B
:100BD800BD0DBE0D3D08043EA0003E080318013EB1
:100BE800003EA100A201A11BA2032208A3003C0809
:100BF800A7003B08A6003A08A5003908A4000A1275
:100C08008A159C260A128A11831203132308B3003B
:100C18002208B2002108B1002008B0000A128A1187
:100C280015270A128A11831203132F08BC002E08F5
:100C3800BB002D08BA002C08B9003908BD000330E4
:100C48000310BD0DFF3E031D242E03103D0DBE00F5
:100C5800BE0E17083E06CF393E0697003908BD007C
:100C68003A08BE003B08BF003C08C0000230031031
:100C7800C00CBF0CBE0CBD0CFF3E031D3B2E3D0837
:100C8800950008008312031323080319502E220825
:100C980021042004031D632E0030A0000030A100B1
:100CA8000030A20008000130F4007408A3070130E6
:100CB8000310A20CA10CA00CFF3E031D5C2EFE30FD
:100CC800220503197E2E572E0130F4007408A3075D
:100CD8000130A007003003180130A10700300318C5
:100CE8000130A20701300310A20CA10CA00CFF3E9A
:100CF800031D772EFF30220503198D2E682E013033
:100D0800A30201300310A00DA10DA20DFF3E031D8B
:100D1800862EA11B932E023023020318832E23183C
:100D28009B2EFF30A0057F30A105FF30A2050310E0
:100D3800A30C2308F400F501F60110300310F40D9C
:100D4800F50DF60DFF3E031DA22E7408A0047508CC
:100D5800A1047608A204240803190800A2170800B1
:100D680000300A128A153A250A128A111A3083129B
:100D78000313A200F730A100A10BC02EA20BC02EB6
:100D8800C52E03300A128A1554250A128A11073013
:100D980083120313A2007C30A100A10BD12EA20B59
:100DA800D12E000003300A128A1554250A128A111E
:100DB8000F3083120313A2004730A100A10BE22ECB
:100DC800A20BE22E03300A128A1554250A128A1140
:100DD80002300A128A1554250A128A1102300A12A0
:100DE8008A1554250A128A1108300A128A155425C0
:100DF8000A128A1100300A128A1554250A128A1119
:100E08000C300A128A1554250A128A1100300A1267
:100E18008A1554250A128A1106300A128A15542591
:100E28000800003083120313B7000030B60000300A
:100E3800B5000030B4002F082E042D042C0403192B
:100E48006C2FB801B80AAF1B372F0130F50003101B
:100E5800AC0DAD0DAE0DAF0DF50B2B2F0130F50020
:100E68007508B807272F0130F5000310B40DB50D2C
:100E7800B60DB70DF50B392F2F083302031D4E2F72
:100E88002E083202031D4E2F2D083102031D4E2F4E
:100E98002C083002031C5F2F2C08B0022D08031CFD
:100EA8002D0FB1022E08031C2E0FB2022F08031CAF
:100EB8002F0FB302341401300310AF0CAE0CAD0C7D
:100EC800AC0CFF3E031D602F0130B802031D372F05
:100ED8003708AF003608AE003508AD003408AC005E
:100EE80008000B3083160313AC002C08831203137D
:100EF800EE00A101A10A01300A128A15AE270A12D2
:100F08008A11831203136E08A3000030031D80307A
:100F1800A4000A128A15DD260A128A1118308316CF
:100F28000313AC002C0883120313EB000A128A1176
:100F3800DC220A128A1183160313AD00AE012D08B4
:100F480083120313EC00831603132E088312031372
:100F5800ED00BD300A128A1133200A128A110D30B1
:100F680083160313AC002C0883120313A10001306D
:100F78000A128A15AE270A128A11BD30831203138A
:100F8800A3000030A4000A128A15DD260800831287
:100F98000313270828040319FA2FF601F60AA81BD9
:100FA800E12F01300310A70DA80DFF3E031DD62F1A
:100FB8000130F5007508F607D32F28082A02031D0B
:100FC800E72F27082902031CEF2F2708A902280862
:100FD800031CAA03AA0201300310A80CA70CFF3EA9
:100FE800031DF02F0130F602031DE12F2A08A80087
:060FF8002908A700080013
:10100000FF1B0A2883137F1883170008840A03191B
:10101000FF0A080008308A000408840A82070034A6
:10102000013400340A34003464340034E8340334C6
:1010300010342734543465346D347034653472346C
:10104000613474347534723465343A340034253480
:0610500033346434003467
:10194A00831603138F01900108003F3406345B3479
:10195A004F3466346D347D3407347F346F340A1261
:10196A008A1563270A128A150A128A1175270A121A
:10197A008A15B92C831203139416F0309405941324
:10198A00831603138C15831203138C110800F500B8
:10199A00F4013A3075020318D82C30307502031C52
:1019AA00D82CF401F40A740C08008B170B17831651
:1019BA0003130C17831203130C13831603138C16C9
:1019CA00831203138C1208008B160B118316031350
:1019DA00811281110108F8390538810064308312B7
:1019EA000313810008007E088A007F088200F82419
:1019FA000A128A158000840A04087D060319003435
:101A0A00FF0A0319FE0AFC2C831203132508A000FF
:101A1A002608A100A2018E30A8002808A300A4016C
:101A2A000A128A114626831203132008A5002108E8
:101A3A00A6002208A7000800831203131F083F39D3
:101A4A0040389F00C3309F059F109F1C302D831282
:101A5A0003139F14332D831203139F101F1483162D
:101A6A0003139F171F129F120800F400741C412DC4
:101A7A00831203138615442D831203138611F41C53
:101A8A00482D0615492D0611741D4D2D86144E2D0F
:101A9A008610F41D522D0614080006100800831241
:101AAA000313A000861220080A128A153A250A1280
:101ABA008A158312031306160630F6003030F50035
:101ACA00F50B652DF60B652D000083120313061224
:101ADA000800F401F50183120313201C7A2D220851
:101AEA00F4070318F50A2308F50701300310A20DBD
:101AFA00A30DFF3E031D7B2D01300310A10CA00C8A
:101B0A00FF3E031D822D20082104031D702D750838
:101B1A00A1007408A0000800831603138C1E9A2DD6
:101B2A00831203138C1E9A2D8C12831603130C1F17
:101B3A00A32D831203130C1FA32D0C138B1A0B1D39
:101B4A00A72D0B11831603138C1DB02D83120313BB
:101B5A008C1DB02D8C1173088312FF0072088A0045
:101B6A0071088400700E8300FE0E7E0E0900831633
:101B7A000313880183160317890183160313860149
:101B8A00061786170711831603178810081188117C
:101B9A000812831603138510051185110512831681
:101BAA0003170814881283160313051487120716DD
:101BBA008512871183120313850186018701880123
:101BCA008901080083120313A20022080F39F500C5
:101BDA007508A0002208F039F5007508A1008616DC
:101BEA002108F50004300310F50CFF3E031DF82D03
:101BFA0075080A128A153A250A128A1583120313DE
:101C0A0006160D30F500F50B082E83120313061283
:101C1A0020080A128A153A250A128A158312031312
:101C2A0006160D30F500F50B182E83120313061253
:101C3A00080083120313A501A60120082104031931
:101C4A00572EA401A40AA11B362E01300310A00DA1
:101C5A00A10DFF3E031D2B2E0130F4007408A407CA
:101C6A00282E01300310A50DA60DFF3E031D372EA9
:101C7A0021082302031D432E20082202031C4C2E96
:101C8A002008A2022108031CA303A3022514013081
:101C9A000310A10CA00CFF3E031D4D2E0130A4021F
:101CAA00031D362E2608A1002508A0000800831669
:101CBA00031307178717981618121813831203139A
:101CCA009817181618138316031318158316031773
:101CDA008711831203133908AC003A08AD00AE012C
:101CEA00AF010030B3003D30B2000930B10000301E
:101CFA00B0000A128A1115270A128A1583120313D1
:101D0A002C08BB002D08BC002E08BD002F08BE0001
:101D1A0004300310BE0CBD0CBC0CBB0CFF3E031DF3
:101D2A008E2E3B08FF3E83160313990008000030ED
:101D3A0083120313AB000030AA000030A900003060
:101D4A00A800201CBC2E2408A80725080311031884
:101D5A00013E031DA907260803110318013E031DAE
:101D6A00AA07270803110318013E031DAB07013018
:101D7A00F4000310A40DA50DA60DA70DF40BBE2E9D
:101D8A0001300310A30CA20CA10CA00CFF3E031DF2
:101D9A00C62E2308220421042004031DA62E2B0884
:101DAA00A3002A08A2002908A1002808A000080008
:101DBA0083120313A801A90128082307A6002408EF
:101DCA00A5000318A50AA81BA50383120313250857
:101DDA00A7002708FF00260884000A128A15002097
:101DEA000A128A15003A0319080028082307A600D0
:101DFA002408A5000318A50AA81BA5038312031328
:101E0A002508A7002708FF00260884000A128A1559
:101E1A0000200A128A150A128A15E7250A128A155B
:101E2A00013083120313A8070318A90A0030A9076F
:101E3A00E12E831603130715831203133908BD0015
:101E4A003A08BE003B08BF003C08C000023003103D
:101E5A00BD0DBE0DBF0DC00DFF3E031D2C2F40084A
:101E6A00AF003F08AE003E08AD003D08AC000030B0
:101E7A00B3003D30B2000930B1000030B0000A12A0
:101E8A008A111527831203132C08FF3E83160313A6
:101E9A0092003F308312031397051708F0390C3864
:101EAA009700CF30970595018C1087309205FC304A
:101EBA009205121583160313071108000A128A15D0
:101ECA00A5240A128A150A128A15DA240A128A1510
:101EDA000A128A15BC250A128A150A128A11B42610
:101EEA000A128A150A128A1521250A128A150A1255
:101EFA008A15E9240A128A15003083120313BC00DA
:101F0A000030BB002730BA001030B9000A128A1517
:101F1A001E270A128A15003083120313BC000030F0
:101F2A00BB000030BA004630B9000A128A11D72520
:101F3A000A128A150A128A15BF240A128A158030D3
:101F4A0083120313B9002530BA000A128A155C26D7
:101F5A00080083120313A4002403031DD72F2108AA
:101F6A007F3EA2002208A7002708A200043003101F
:101F7A00A20CFF3E031DBC2F2208A3002308A500C4
:101F8A0027080F39A2002208A60025080A128A1576
:101F9A0054250A128A158312031326080A128A156F
:101FAA00542508000230831203132406031D080077
:101FBA002108BF3EA2002208A7002708A200043079
:101FCA000310A20CFF3E031DE52F2208A3002308DD
:101FDA00A50027080F39A2002208A60025080A1220
:101FEA008A1554250A128A158312031326080A121F
:061FFA008A1554250800C1
:04400E00F2FCFFFFC2
:00000001FF
