:060000000A128A11122809
:10000800FE00030EF0000408F1000A08F200831253
:1000180003137F08F3000A128A15902D0A128A1119
:1000280015288313D630FD000C30FE00A630FF00E3
:10003800BF3084000A128A15862483160313D6015A
:10004800D701D801D901DA01DB01F601F701F8017E
:10005800F90183010A128A156A2D83160313A80071
:100068006E30A0002008A300013083120313ED07AF
:10007800FF306D0784000A128A1500200A128A11BF
:1000880083160313A0002008AB002B080319CA2904
:1000980025302B0603195C282B08A00028088400AB
:1000A8002008831380000130A0002008A807382802
:1000B800A901AA01A501831203136D0884000A127D
:1000C8008A1500200A128A110A128A1556240A1261
:1000D8008A11031CC12883160313A901AA010A3037
:1000E80083120313A0000030A100831603132A080B
:1000F80083120313A300831603132908831203131F
:10010800A2000A128A1547250A128A1183120313BC
:10011800210883160313AA008312031320088316E9
:100128000313A900831203136D0884000A128A15A9
:1001380000200A128A11D03E83160313A000FF3054
:1001480003180030A1002008A9070318AA0A2108EB
:10015800AA070130A000200883120313ED076D08D9
:1001680084000A128A1500200A128A110A128A15B6
:1001780056240A128A1103187328013083120313B4
:10018800ED07FF306D0784000A128A1500200A1255
:100198008A1183160313AB00003A0319CA29643A7B
:1001A8000319DA280D3A0319DA28382883160313B5
:1001B8002308840083130008A600840A0008A70007
:1001C8000230A0002008A307A71FF3280330A000CF
:1001D8002008A504A609A709A60A0319A70AAB01BE
:1001E800AB0A05302B0603191A292B08A000200793
:1001F800013E84000A128A1500200A128A11A10001
:100208000A128A1500200A128A11A200220827025F
:10021800031D102921082602031C1A290130A000F9
:100228002008AB0705302B06031DF92829082A04E6
:10023800031928292508033903192829FF30A90794
:100248000318AA0AFF30AA072B08A000A101A01BC7
:10025800A1032108803AA2002A08803A2202031D3D
:1002680037292908200203184729831603132B0866
:10027800A000A101A01BA1032008A9022108031CBA
:10028800AA03AA024B2983160313A901AA01290864
:100298002A04031964292030A000280884002008B3
:1002A800831380000130A0002008A807FF30A907A9
:1002B8000318AA0AFF30AA0729082A04031D4F2990
:1002C80025080339031973292D30A0002808840054
:1002D8002008831380000130A0002008A8072B08FD
:1002E800A0002008A400FF30A0002008A407240ACA
:1002F800031938280A3083120313A7000030A80016
:10030800831603132408A0002007013E84000A1264
:100318008A1500200A128A1183120313A0000A12F8
:100328008A1500200A128A11A100831603132708D0
:1003380083120313A30083160313260883120313DF
:10034800A2000A128A151D260A128A1183120313A3
:100358002108AA002008A9000A128A11CC270A122B
:100368008A11831203132708303E83160313A10052
:100378002108AB002B08A00028088400200883135C
:1003880080000130A0002008A807772983160313EE
:1003980028088400831380010800831203134B0884
:1003A800D1004C08D2004D08D3000310520D530D54
:1003B800D4005408D7004E08D1004F08D200500886
:1003C800D3000310520D530DD4005408D60057081B
:1003D8000319FA29560857020318012A5703FF3A46
:1003E8005607D10019305102031C012A4E08CB00D0
:1003F8004F08CC005008CD00080056080319080023
:10040800570856020318102A5603FF3A5707D10017
:1004180019305102031808000630D1005108D500E0
:10042800CD1BD517D01B5517CC17FF30CB05FF3088
:10043800CC050030CD05CF17FF30CE05FF30CF05F6
:100448000030D005560857020318502A013003100F
:10045800CE0DCF0DD00DFF3E031D2B2A0130D60245
:100468005608570603194B2A0130D5025508073993
:1004780003194B2A2A2A01300310CD0CCC0CCB0CC3
:10048800FF3E031D402A0130D1005108D707570805
:1004980056060319792A3F2A570856020318792A5B
:1004A80001300310CB0DCC0DCD0DFF3E031D552A99
:1004B8000130D702560857060319752A0130D502AC
:1004C800550807390319752A542A01300310D00C2E
:1004D800CF0CCE0CFF3E031D6A2A0130D100510813
:1004E800D60757085606031D692AD51F8B2AFF30E1
:1004F800CB06FF30CC06FF30CD060130CB070030ED
:1005080003180130CC07003003180130CD07551F00
:100518009D2AFF30CE06FF30CF06FF30D0060130CF
:10052800CE07003003180130CF0700300318013020
:10053800D007D5014B08CE074C08031103184C0A05
:10054800031DCF074D08031103184D0A031DD007DB
:10055800D01FC02AFF30CE06FF30CF06FF30D006AE
:100568000130CE07003003180130CF0700300318E0
:100578000130D007D501D50A4E08A0004F08A100C8
:100588005008A2005708D1005108A3005508D2000E
:100598005208A4000A128A11422683120313200863
:1005A800CB002108CC002208CD00080007308312B8
:1005B8000313E7007C30E600E60BE02AE70BE02AAD
:1005C8000000831203139F140C1FE82A83160313D9
:1005D8001E0883120313E6006608F6001E08E600EC
:1005E8006608F700EB01EC016C08803AFF008030E8
:1005F8007F02031D012B0A306B020318B82B760803
:1006080083160313D6070318D70A7708D7070930C4
:10061800831203136B066C04031DA72B0B30A00079
:100628000030A10083160313570883120313A30095
:1006380083160313560883120313A2000A128A159D
:100648001D260A128A118312031321088316031325
:10065800D70083120313200883160313D600570804
:1006680083120313A9008316031356088312031376
:10067800A8000A128A15BD240A128A1183120313CC
:100688002808AE002908AF002A08B0004030AB00A7
:100698009C30AC004530AD000A128A11BA230A1208
:1006A8008A11831203132B08BE002C08BF002D08E3
:1006B800C000C030BB007F30BC004430BD000A120F
:1006C8008A118D240A128A11831203133B08CE0063
:1006D8003C08CF003D08D0000030CB00FA30CC00F9
:1006E800C330CD000A128A11D1210A128A1183124D
:1006F80003134B08E8004C08E9004D08EA006808B5
:10070800BE006908BF006A08C0000030BB00203086
:10071800BC004130BD000A128A118D240A128A11C8
:10072800831203133B08D8003C08D9003D08DA00BF
:100738000A128A1145250A128A11831203135808CE
:10074800E6006608F8000130EB070318EC0A0030F1
:10075800EC076C08803AFF0080307F02031DB62B3F
:100768000A306B02031C032B78080800831203135A
:100778002B08B1002C08B2002D08B3000310320D6D
:10078800330DB4003408B5003508031DD22B0030F2
:10079800AB000030AC000030AD0008002E08B100FE
:1007A8002F08B2003008B3000310320D330DB40027
:1007B8003408BA003A08031DE82B0030AB000030BB
:1007C800AC000030AD0008003A087B3EB1003108AB
:1007D800B5072B08B1002C08B2002D08B300103063
:1007E8000310B30CB20CB10CFF3E031DF42B3108FF
:1007F800B4003408BA002E08B1002F08B20030083F
:10080800B30010300310B30CB20CB10CFF3E031D43
:10081800062C3108B4003408BA068030B10031081B
:10082800BA05AC17AF17FF30AE05FF30AF05003083
:10083800B0050030B6000030B7000030B80007300F
:10084800B1003108B9002B1C372C2E08B6072F0829
:10085800031103182F0A031DB707300803110318E3
:10086800300A031DB80701300310AD0CAC0CAB0CFB
:10087800FF3E031D382C01300310AE0DAF0DB00D37
:10088800FF3E031D402C0130B902031D272C0930FF
:10089800B1003108B9002B1C5F2C2E08B6072F08B1
:1008A800031103182F0A031DB70730080311031893
:1008B800300A031DB80701300310AD0CAC0CAB0CAB
:1008C800FF3E031D602C01300310B80CB70CB60CAA
:1008D800FF3E031D682C0130B902031D4F2C36085A
:1008E800A0003708A1003808A2003508B100310877
:1008F800A3003A08B2003208A4000A128A1142265C
:10090800831203132008AB002108AC002208AD00B5
:100918000800831203133E08C1003F08C2004008C4
:10092800C3000310420D430DC4004408C900490820
:10093800031DA52C0030BB000030BC000030BD00FA
:1009480008003B08C1003C08C2003D08C300031072
:10095800420D430DC4004408CA004A08031DBB2CBD
:100968000030BB000030BC000030BD000800003083
:10097800C6000030C7000030C80089304A07C100EF
:100988004108C9023E08C1003F08C2004008C30030
:1009980010300310C30CC20CC10CFF3E031DCD2C3C
:1009A8004108C4004408CA003B08C1003C08C20012
:1009B8003D08C30010300310C30CC20CC10CFF3E2D
:1009C800031DDF2C4108C4004408CA068030C1005A
:1009D8004108CA05BF17FF30BE05FF30BF0500300C
:1009E800C005BC17FF30BB05FF30BC050030BD0596
:1009F8001830C1004108C50001300310C60DC70DED
:100A0800C80DFF3E031D012D3D084002031D122D98
:100A18003C083F02031D122D3B083E02031C1F2DFC
:100A28003B08BE023C08031C3C0FBF023D08031CE8
:100A38003D0AC002461401300310BE0DBF0DC00DA3
:100A4800FF3E031D202D0130C502031D002D460861
:100A5800A0004708A1004808A2004908C1004108B1
:100A6800A3004A08C2004208A4000A128A114226BA
:100A7800831203132008BB002108BC002208BD0014
:100A88000800831203135808DC005908DD005A08CF
:100A9800DE0003105D0D5E0DDF005F08E5006508F0
:100AA800031D5F2D0030DB000030DA000030D90074
:100AB8000030D80008005808DC005908DD005A0842
:100AC800DE0017300310DE0CDD0CDC0CFF3E031DCE
:100AD800662D5C08DF005F08E000D917FF30D805F5
:100AE800FF30D9050030DA055808E1005908E2005E
:100AF8005A08E300E4018E30E502E51FA12D6508E0
:100B0800803A8F3E0318912D0030DB000030DA0068
:100B18000030D9000030D800080001300310E40C80
:100B2800E30CE20CE10CFF3E031D922D0130DC00CA
:100B38005C08E5070319BC2D912D18306502031CCC
:100B4800B92D0030DB000030DA000030D900003069
:100B5800D80008000130DC000310E10DE20DE30DC0
:100B6800E40DDC0BB02D0130E5026508031DAE2D48
:100B780060080319CA2DE109E209E309E409E10A59
:100B88000319E20A0319E30A0319E40A6408DB00FB
:100B98006308DA006208D9006108D800080000304C
:100BA80083120313AF000030AE000030AD00643094
:100BB800AC0083160313120883120313BD00BE0191
:100BC8000310BD0DBE0D0310BD0DBE0D3D08043E46
:100BD800A0003E080318013E003EA100A201A11B8F
:100BE800A2032208A3003C08A7003B08A6003A0875
:100BF800A5003908A4000A128A159B260A128A1130
:100C0800831203132308B3002208B2002108B1009D
:100C18002008B0000A128A1111270A128A118312B9
:100C280003132F08BC002E08BB002D08BA002C089F
:100C3800B9003908BD0003300310BD0DFF3E031D88
:100C4800202E03103D0DBE00BE0E17083E06CF39FC
:100C58003E0697003908BD003A08BE003B08BF00B1
:100C68003C08C00002300310C00CBF0CBE0CBD0C09
:100C7800FF3E031D372E3D0895000800831203131D
:100C8800230803194C2E220821042004031D5F2E7B
:100C98000030A0000030A1000030A20008000130A0
:100CA800A5002508A30701300310A20CA10CA00C75
:100CB800FF3E031D582EFE30220503197A2E532EAF
:100CC8000130A5002508A3070130A007003003184C
:100CD8000130A107003003180130A20701300310CA
:100CE800A20CA10CA00CFF3E031D732EFF302205A1
:100CF8000319892E642E0130A30201300310A00DC0
:100D0800A10DA20DFF3E031D822EA11B8F2E0230C6
:100D1800230203187F2E2318972EFF30A0057F305B
:100D2800A105FF30A2050310A30C2308A500A60106
:100D3800A70110300310A50DA60DA70DFF3E031D3A
:100D48009E2E2508A0042608A1042708A20424082A
:100D580003190800A217080000300A128A15EE24A9
:100D68000A128A111A3083120313A300F730A20063
:100D7800A20BBC2EA30BBC2EC12E03300A128A155F
:100D880008250A128A11073083120313A3007C3046
:100D9800A200A20BCD2EA30BCD2E000003300A1209
:100DA8008A1508250A128A110F3083120313A3002B
:100DB8004730A200A20BDE2EA30BDE2E03300A1250
:100DC8008A1508250A128A1102300A128A1508257E
:100DD8000A128A1102300A128A1508250A128A1183
:100DE80008300A128A1508250A128A1100300A12D8
:100DF8008A1508250A128A110C300A128A15082544
:100E08000A128A1100300A128A1508250A128A1154
:100E180006300A128A1508250800003083120313C9
:100E2800B7000030B6000030B5000030B4002F081D
:100E38002E042D042C040319682FB801B80AAF1B1F
:100E4800332F0130F5000310AC0DAD0DAE0DAF0D15
:100E5800F50B272F0130F5007508B807232F01304F
:100E6800F5000310B40DB50DB60DB70DF50B352F04
:100E78002F083302031D4A2F2E083202031D4A2F62
:100E88002D083102031D4A2F2C083002031C5B2F4A
:100E98002C08B0022D08031C2D0FB1022E08031CCC
:100EA8002E0FB2022F08031C2F0FB3023414013087
:100EB8000310AF0CAE0CAD0CAC0CFF3E031D5C2F49
:100EC8000130B802031D332F3708AF003608AE00D3
:100ED8003508AD003408AC000800B0308400BF30DD
:100EE80083160313AC000408AD000D30AE002C08C7
:100EF800840083130008AF00AC0A2D0884002F0873
:100F08008000AD0AAE0B7B2F83120313A201A20A45
:100F180001300A128A15AE270A128A11B0300A1255
:100F28008A1524250A128A110B3083160313AC0084
:100F38002C0883120313ED000A128A11DA220A120E
:100F48008A1183160313AD00AE012D088312031313
:100F5800EE00831603132E0883120313EF00DA3012
:100F68000A128A1131200A128A110D3083160313CE
:100F7800AC002C0883120313A20001300A128A1550
:100F8800AE270A128A11DA300A128A1524250800B7
:100F980083120313270828040319FB2FAB01AB0A9C
:100FA800A81BE22F01300310A70DA80DFF3E031D5B
:100FB800D72F0130F5007508AB07D42F28082A026F
:100FC800031DE82F27082902031CF02F2708A90270
:100FD8002808031CAA03AA0201300310A80CA70CB6
:100FE800FF3E031DF12F0130AB02031DE22F2A083B
:100FF800A8002908A700080008308A000408840A05
:1010080082070034013400340A3400346434003474
:10101800E83403341034273425343334643400344A
:10187800831603138F0190010800F4007408831283
:10188800031393008C190800462C83120313941633
:10189800F03094059413831603138C1583120313E5
:1018A8008C110800F500F4013A3075020318622C17
:1018B80030307502031C622CF401F40A740C080021
:1018C8008B170B17831603130C17831203130C13B0
:1018D800831603138C16831203138C1208008B16BD
:1018E8000B1183160313811281110108F839053889
:1018F8008100643083120313810008007E088A0087
:101908007F08820082240A128A158000840A04084B
:101918007D0603190034FF0A0319FE0A862C831278
:101928000313A2002208831203178D0083160317DE
:101938008C130C14013083120313A1000C30A00087
:1019480020080800543465346D34703465347234BA
:10195800613474347534723465343A3400343F3445
:1019680006345B344F3466346D347D3407347F3449
:101978006F34831203132808A0002908A100A201CC
:101988008E30F4007408A300A4010A128A114226BA
:10199800831203132008A8002108A9002208AA001E
:1019A8000800831203131F083F3940389F00C330D3
:1019B8009F059F109F1CE42C831203139F14E72C90
:1019C800831203139F101F14831603139F171F12EC
:1019D8009F120800F400741CF52C8312031386155B
:1019E800F82C831203138611F41CFC2C0615FD2C0D
:1019F8000611741D012D8614022D8610F41D062D66
:101A08000614080006100800F50083120313861256
:101A180075080A128A15EE240A128A15831203130E
:101A28000616063083120313A1002F30A000A00B66
:101A38001B2DA10B1B2D202D83120313061208004A
:101A480083120313A600A401A50124082607A300F6
:101A580023088400831300080319080024082607B4
:101A6800A30023088400831300080A128A15E625B8
:101A78000A128A15013083120313A4070318A50A52
:101A88000030A507292DF401F50183120313201C4A
:101A9800532D2208F4070318F50A2308F507013027
:101AA8000310A20DA30DFF3E031D542D013003109A
:101AB800A10CA00CFF3E031D5B2D20082104031D73
:101AC800492D7508A1007408A00008000A128A159B
:101AD80063270A128A1524300A128A1593240A12D7
:101AE8008A1583160313BD00BE013D088312031334
:101AF800A300831603133E0883120313A400A50151
:101B0800A50A0A128A15DC260A128A150A128A11EF
:101B180071270A128A158A2D831603138C1E992D94
:101B2800831203138C1E992D8C12831603130C1F1A
:101B3800A22D831203130C1FA22D0C138B1A0B1D3D
:101B4800A62D0B11831603138C1DAF2D83120313BF
:101B58008C1DAF2D8C1173088312FF0072088A0048
:101B680071088400700E8300FE0E7E0E0900831635
:101B7800031388018316031789018316031386014B
:101B8800061786170711831603178810081188117E
:101B98000812831603138510051185110512831683
:101BA80003170814881283160313051487120716DF
:101BB8008512871183120313850186018701880125
:101BC8008901080083120313A20022080F39F500C7
:101BD8007508A0002208F039F5007508A1008616DE
:101BE8002108F50004300310F50CFF3E031DF72D06
:101BF80075080A128A15EE240A128A15831203132D
:101C080006160D30F500F50B072E83120313061286
:101C180020080A128A15EE240A128A158312031361
:101C280006160D30F500F50B172E83120313061256
:101C3800080083120313A501A60120082104031933
:101C4800562EA401A40AA11B352E01300310A00DA5
:101C5800A10DFF3E031D2A2E0130F4007408A407CD
:101C6800272E01300310A50DA60DFF3E031D362EAD
:101C780021082302031D422E20082202031C4B2E9A
:101C88002008A2022108031CA303A3022514013083
:101C98000310A10CA00CFF3E031D4C2E0130A40222
:101CA800031D352E2608A1002508A000080083166C
:101CB800031307178717981618121813831203139C
:101CC8009817181618138316031318158316031775
:101CD8008711831203133908AC003A08AD00AE012E
:101CE800AF010030B3003D30B2000930B100003020
:101CF800B0000A128A1111270A128A1583120313D7
:101D08002C08BB002D08BC002E08BD002F08BE0003
:101D180004300310BE0CBD0CBC0CBB0CFF3E031DF5
:101D28008D2E3B08FF3E83160313990008000030F0
:101D380083120313AB000030AA000030A900003062
:101D4800A800201CBB2E2408A80725080311031887
:101D5800013E031DA907260803110318013E031DB0
:101D6800AA07270803110318013E031DAB0701301A
:101D7800F4000310A40DA50DA60DA70DF40BBD2EA0
:101D880001300310A30CA20CA10CA00CFF3E031DF4
:101D9800C52E2308220421042004031DA52E2B0888
:101DA800A3002A08A2002908A1002808A00008000A
:101DB80083120313851206300A128A1541240A1267
:101DC8008A15831203138516033083120313A700A1
:101DD8009730A600A60BEE2EA70BEE2E8312031348
:101DE8008512073083120313A7007C30A600A60BC8
:101DF800FB2EA70BFB2E000002300A128A15412485
:101E08000A128A1500300A128A1541240A128A1504
:101E18008312031325080A128A1541240A128A1507
:101E28008312031323080A128A1541248312031309
:101E38008516080083160313071583120313390840
:101E4800BD003A08BE003B08BF003C08C000023095
:101E58000310BD0DBE0DBF0DC00DFF3E031D2C2F81
:101E68004008AF003F08AE003E08AD003D08AC009A
:101E78000030B3003D30B2000930B1000030B0008E
:101E88000A128A111127831203132C08FF3E8316A6
:101E9800031392003F308312031397051708F03994
:101EA8000C389700CF30970595018C108730920534
:101EB800FC309205121583160313071108000A1245
:101EC8008A153C240A128A150A128A1564240A12F1
:101ED8008A150A128A15BB250A128A150A128A114E
:101EE800B0260A128A150A128A15D5240A128A15EA
:101EF8000A128A1573240A128A15003083120313F2
:101F0800BC000030BB002730BA001030B9000A12FC
:101F18008A151E270A128A15003083120313BC0083
:101F28000030BB000030BA004630B9000A128A11EE
:101F3800D3250A128A150A128A1549240A128A1503
:101F4800803083120313B9002530BA000A128A15AB
:101F58005B26080083120313A5002503031DD72F52
:101F680022087F3EA3002308A8002808A300043005
:101F78000310A30CFF3E031DBC2F2308A400240854
:101F8800A60028080F39A3002308A70026080A126C
:101F98008A1508250A128A158312031327080A12BC
:101FA8008A15082508000230831203132506031D2D
:101FB80008002208BF3EA3002308A8002808A300A1
:101FC80004300310A30CFF3E031DE52F2308A400D3
:101FD8002408A60028080F39A3002308A70026080C
:101FE8000A128A1508250A128A158312031327086C
:081FF8000A128A1508250800F1
:04400E00F2FCFFFFC2
:00000001FF
