:060000000A128A11122809
:10000800FE00030EF0000408F1000A08F200831253
:1000180003137F08F3000A128A11262C0A128A1188
:1000280015288313D630FD000330FE006330FF002F
:10003800A03084000A128A1119240A128A115B302E
:10004800FD000330FE00FD30FF00433084000A123B
:100058008A1119240A128A11831790308400A43057
:100068000A128A1135240A128A118313D6308400A1
:10007800E0300A128A1135240A128A115B30840092
:100088006F300A128A113524F601F701F801F901D7
:1000980083010A128A11262BFF1B5A2883137F1803
:1000A80083170008840A0319FF0A080000308A0031
:1000B8000408840A82070034013400340034003410
:1000C8000A3400340034003464340034003400341A
:1000D800E834033400340034103427340034003456
:1000E800A034863401340034403442340F340034B0
:1000F80080349634983400340034E134F5340534CF
:100108000034CA349A343B34003480343F340034E9
:10011800203441340034C834423400347A3444340E
:1001280040341C3446345034C33447342434743493
:100138004934973418344B34BC34BE344C346B34A3
:100148006E344E340334153450347934AD3460345D
:10015800F33449347134003480343F34CD34CC34F2
:100168003D34D73423343C34123483343A34B734EE
:10017800D1343834C63427343734383486343534B7
:10018800C034D6343334CC342B34323470348934DC
:100198003034E734DB342E34E5343C341E34423416
:1001A800A2340D34543465346D347034653472348B
:1001B800613474347534723465343A340034253417
:1001C8002E34323466340034253434346434003404
:1001D800003083120313AF000030AE000030AD00D2
:1001E8006430AC0083160313120883120313BD0096
:1001F800BE010310BD0DBE0D0310BD0DBE0D3D08A3
:10020800043EA0003E080318013E003EA100A201E2
:10021800A11BA2032208A3003C08A7003B08A600D4
:100228003A08A5003908A4000A128A11A5220A1260
:100238008A11831203132308B3002208B20021088D
:10024800B1002008B0000A128A115B210A128A1133
:10025800831203132F08BC002E08BB002D08BA0018
:100268002C08B9003908BD0003300310BD0DFF3E4E
:10027800031D392903103D0DBE00BE0E17083E06AA
:10028800CF393E0697003908BD003A08BE003B0842
:10029800BF003C08C00002300310C00CBF0CBE0CED
:1002A800BD0CFF3E031D50293D0895000800003095
:1002B80083120313B7000030B6000030B5000030D9
:1002C800B4002F082E042D042C040319B229B801F8
:1002D800B80AAF1B7D290130F5000310AC0DAD0D38
:1002E800AE0DAF0DF50B71290130F5007508B80793
:1002F8006D290130F5000310B40DB50DB60DB70D1D
:10030800F50B7F292F083302031D94292E0832028A
:10031800031D94292D083102031D94292C0830024D
:10032800031CA5292C08B0022D08031C2D0FB102AF
:100338002E08031C2E0FB2022F08031C2F0FB30226
:10034800341401300310AF0CAE0CAD0CAC0CFF3EF6
:10035800031DA6290130B802031D7D293708AF0007
:100368003608AE003508AD003408AC00080000308F
:100378000A128A11E3230A128A11343083120313F2
:10038800A300F130A200A20BC729A30BC729033091
:100398000A128A11C7230A128A110D308312031315
:1003A800A300FB30A200A20BD729A30BD729033047
:1003B8000A128A11C7230A128A111D3083120313E5
:1003C800A3009030A200A20BE729A30BE7290000A5
:1003D80003300A128A11C7230A128A1102300A123C
:1003E8008A11C7230A128A1102300A128A11C723F6
:1003F8000A128A1108300A128A11C7230A128A11AE
:1004080000300A128A11C7230A128A110C300A1204
:100418008A11C7230A128A1100300A128A11C723C7
:100428000A128A1106300A128A11C7230800831695
:100438000313071787179816181218138312031334
:10044800981718161813981518119810831603136F
:100458001815831603178715831203133C08AF007A
:100468003B08AE003A08AD003908AC000030B300D4
:100478007A30B2001230B1000030B0000A128A118E
:100488005B210A128A11831203132C08BD002D0860
:10049800BE002E08BF002F08C00002300310C00C99
:1004A800BF0CBE0CBD0CFF3E031D522A3D08FF3E8B
:1004B8008316031399000800831603130715831284
:1004C80003133908BD003A08BE003B08BF003C08CA
:1004D800C00002300310BD0DBE0DBF0DC00DFF3EA4
:1004E800031D6E2A4008AF003F08AE003E08AD006D
:1004F8003D08AC000030B3007A30B2001230B100D1
:100508000030B0000A128A115B21831203132C08F1
:10051800FF3E8316031392003F308312031397059F
:100528001708F0390C389700CF30970595018C10D3
:1005380087309205FC3092051215831603130711B4
:100548000800003083120313AB000030AA0000300B
:10055800A9000030A800201CC52A2408A8072508DF
:1005680003110318013E031DA907260803110318E8
:10057800013E031DAA07270803110318013E031DA6
:10058800AB070130F4000310A40DA50DA60DA70DAF
:10059800F40BC72A01300310A30CA20CA10CA00C69
:1005A800FF3E031DCF2A2308220421042004031D33
:1005B800AF2A2B08A3002A08A2002908A1002808AE
:1005C800A00008000A128A113D240A128A110A1290
:1005D8008A1143240A128A110A128A1199230A12CB
:1005E8008A110A128A11BB210A128A110030831259
:1005F8000313BC000030BB002730BA001030B9002C
:100608000A128A1160220A128A1100308312031317
:10061800BC000030BB000030BA005030B9000A12EC
:100628008A11EC200A128A11003083120313BC00CD
:100638000030BB002530BA008030B9000A128A1198
:100648001B2208000A128A11E6220A128A1183164E
:100658000313E001E1016108803AFF0080307F0266
:10066800031D382B6430600203182B2B83160313E9
:10067800600883120313B9008316031361088312F9
:100688000313BA000030BA1BFF30BB00BC000A12CB
:100698008A11EC200A128A11823083120313C200D5
:1006A800DD30C100C10B562BC20B562B013083160F
:1006B8000313E0070318E10A0030E1072F2B533436
:1006C8004E342C34593461346C346134203444341D
:1006D800653476346934633465340D340034323427
:1006E80030343134313434347834783478347834BC
:1006F80000343F3406345B344F3466346D347D3413
:1007080007347F346F34593461346C346134543471
:100718006534633468340034593461346C3461347A
:100728005434653463346834003483160313880101
:100738008316031789018316031386010617861784
:1007480007118316031788100811881108128316D9
:100758000313851005118511051283160317081454
:10076800881283160313051487120716851287113A
:1007780083120317881383120313850186018701E7
:10078800880189010800F500831203138612750891
:100798000A128A11E3230A128A1183120313061616
:1007A8000B3083120313A1006130A000A00BDA2BD9
:1007B800A10BDA2BDF2B8312031306120800F400B7
:1007C800741CEA2B831203138615ED2B8312031373
:1007D8008611F41CF12B0615F22B0611741DF62B4D
:1007E8008614F72B8610F41DFB2B06140800061040
:1007F800080030343134323433343434353400344E
:10080800533446342C3431340D34003472342C349F
:1008180031340D3400342434243424340D34003479
:1008280002347E088A007F08820015240A128A1181
:100838008000840A04087D0603190034FF0A03199E
:10084800FE0A192C8B1A0B1D2A2C0B117308FF009A
:1008580072088A0071088400700E8300FE0E7E0EF6
:10086800090064008001840A0406031900340406A0
:10087800362C7730831603138F00900108008B17EE
:040888000B17080042
:04400E00F2E0FFFFDE
:00000001FF
