:060000000A128A11122809
:10000800FE00030EF0000408F1000A08F200831253
:1000180003137F08F3000A128A15AE2C0A128A11FC
:1000280015288313BD30FD000B30FE00DD30FF00C6
:10003800B23084000A128A1533240A128A110A126D
:100048008A11FC27F90083160313BD01BE01BF0105
:10005800C001C101C201C301C40183120313EE012F
:10006800F601F701F80183010A128A15042D831697
:100078000313AB00A130A3002308A60001308316A8
:100088000313A007FF30200784000A128A150A20EC
:100098000A128A11A3002308AE002E080319C829E2
:1000A80025302E06031964282E08A3002B08840087
:1000B8002308831380000130A3002308AB074228DC
:1000C800AC01AD01A801200884000A128A150A2093
:1000D8000A128A110A128A1503240A128A11031CA9
:1000E800C12883160313AC01AD010A308312031330
:1000F800A0000030A100831603132D0883120313F8
:10010800A300831603132C0883120313A2000A12F8
:100118008A158B240A128A11831203132108831665
:100128000313AD0083120313200883160313AC00D6
:10013800200884000A128A150A200A128A11D03E61
:10014800A300FF3003180030A4002308AC070318ED
:10015800AD0A2408AD070130A3002308A007200832
:1001680084000A128A150A200A128A110A128A15AC
:1001780003240A128A1103187928013083160313FD
:10018800A007FF30200784000A128A150A200A12E5
:100198008A11AE00003A0319C829643A0319D8280D
:1001A8000D3A0319D8284228831603132608840019
:1001B80083130008A900840A0008AA000230A300DB
:1001C8002308A607AA1FF1280330A3002308A804C0
:1001D800A909AA09A90A0319AA0AAE01AE0A053093
:1001E8002E06031918292E08A3002307013E8400B0
:1001F8000A128A150A200A128A11A4000A128A15FC
:100208000A200A128A11A50025082A02031D0E29B0
:1002180024082902031C18290130A3002308AE076B
:1002280005302E06031DF7282C082D04031926294E
:100238002808033903192629FF30AC070318AD0A2B
:10024800FF30AD072E08A300A401A31BA4032408B4
:10025800803AA5002D08803A2502031D35292C086F
:10026800230203184529831603132E08A300A401AB
:10027800A31BA4032308AC022408031CAD03AD028E
:10028800492983160313AC01AD012C082D04031969
:1002980062292030A3002B088400230883138000E0
:1002A8000130A3002308AB07FF30AC070318AD0AE1
:1002B800FF30AD072C082D04031D4D2928080339EC
:1002C800031971292D30A3002B08840023088313F8
:1002D80080000130A3002308AB072E08A3002308E1
:1002E800A700FF30A3002308A707270A03194228FD
:1002F8000A3083120313A7000030A80083160313E3
:100308002708A3002307013E84000A128A150A2041
:100318000A128A1183120313A0000A128A150A20EE
:100328000A128A11A100831603132A0883120313E1
:10033800A30083160313290883120313A2000A12C9
:100348008A15D0250A128A11831203132108AA00DC
:100358002008A9000A128A152F250A128A11831269
:1003680003132708303E83160313A4002408AE00A5
:100378002E08A3002B088400230883138000013073
:10038800A3002308AB077529831603132B088400E1
:10039800831380010800831203134B08D1004C0813
:1003A800D2004D08D3000310520D530DD400540849
:1003B800D7004E08D1004F08D2005008D3000310D0
:1003C800520D530DD4005408D60057080319F829C4
:1003D800560857020318FF295703FF3A5607D1005A
:1003E80019305102031CFF294E08CB004F08CC00DE
:1003F8005008CD000800560803190800570856028F
:1004080003180E2A5603FF3A5707D1001930510234
:10041800031808000630D1005108D500CD1BD517A8
:10042800D01B5517CC17FF30CB05FF30CC0500305B
:10043800CD05CF17FF30CE05FF30CF050030D005F2
:100448005608570203184E2A01300310CE0DCF0D5F
:10045800D00DFF3E031D292A0130D6025608570643
:100468000319492A0130D502550807390319492AC1
:10047800282A01300310CD0CCC0CCB0CFF3E031DF9
:100488003E2A0130D1005108D707570856060319EC
:10049800772A3D2A570856020318772A0130031095
:1004A800CB0DCC0DCD0DFF3E031D532A0130D702D5
:1004B800560857060319732A0130D502550807391B
:1004C8000319732A522A01300310D00CCF0CCE0C1A
:1004D800FF3E031D682A0130D1005108D60757088E
:1004E8005606031D672AD51F892AFF30CB06FF3021
:1004F800CC06FF30CD060130CB07003003180130A1
:10050800CC07003003180130CD07551F9B2AFF3058
:10051800CE06FF30CF06FF30D0060130CE070030C0
:1005280003180130CF07003003180130D007D50178
:100538004B08CE074C08031103184C0A031DCF07BC
:100548004D08031103184D0A031DD007D01FBE2AFA
:10055800FF30CE06FF30CF06FF30D0060130CE0781
:10056800003003180130CF07003003180130D007DE
:10057800D501D50A4E08A0004F08A1005008A200D6
:100588005708D1005108A3005508D2005208A4000A
:100598000A128A114826831203132008CB00210867
:1005A800CC002208CD000800073083120313E700AF
:1005B8007C30E600E60BDE2AE70BDE2A0000831219
:1005C80003139F140C1FE62A831603131E088312B5
:1005D8000313E600660883160313C100831203138E
:1005E8001E08E600660883160313C200831203136D
:1005F800EB01EC016C08803AFF0080307F02031D9C
:10060800072B0A306B020318BE2B8316031341080D
:10061800BD070318BE0A4208BE0709308312031338
:100628006B066C04031DAD2B0B30A0000030A1003D
:10063800831603133E0883120313A30083160313C0
:100648003D0883120313A2000A128A15D0250A1244
:100658008A1183120313210883160313BE00831221
:100668000313200883160313BD003E0883120313E7
:10067800A900831603133D0883120313A8000A1266
:100688008A1540240A128A11831203132808AE001F
:100698002908AF002A08B0004030AB009C30AC00FD
:1006A8004530AD000A128A11C0230A128A1183123A
:1006B80003132B08BE002C08BF002D08C000C03053
:1006C800BB007F30BC004430BD000A128A1193245D
:1006D8000A128A11831203133B08CE003C08CF008C
:1006E8003D08D0000030CB00FA30CC00C330CD003C
:1006F8000A128A11CF210A128A11831203134B0896
:10070800E8004C08E9004D08EA006808BE006908DE
:10071800BF006A08C0000030BB002030BC00413078
:10072800BD000A128A1193240A128A118312031334
:100738003B08D8003C08D9003D08DA000A128A11A3
:100748004B250A128A11831203135808E60066081B
:10075800F6000130EB070318EC0A0030EC076C08D0
:10076800803AFF0080307F02031DBC2B0A306B02E9
:10077800031C092B76080800831203132B08B10009
:100788002C08B2002D08B3000310320D330DB4004D
:100798003408B5003508031DD82B0030AB000030F5
:1007A800AC000030AD0008002E08B1002F08B200E0
:1007B8003008B3000310320D330DB4003408BA000A
:1007C8003A08031DEE2B0030AB000030AC000030BF
:1007D800AD0008003A087B3EB1003108B5072B0888
:1007E800B1002C08B2002D08B30010300310B30C70
:1007F800B20CB10CFF3E031DFA2B3108B4003408CB
:10080800BA002E08B1002F08B2003008B30010302B
:100818000310B30CB20CB10CFF3E031D0C2C3108B5
:10082800B4003408BA068030B1003108BA05AC17F4
:10083800AF17FF30AE05FF30AF050030B005003010
:10084800B6000030B7000030B8000730B1003108FA
:10085800B9002B1C3D2C2E08B6072F0803110318CE
:100868002F0A031DB707300803110318300A031DA8
:10087800B80701300310AD0CAC0CAB0CFF3E031DE8
:100888003E2C01300310AE0DAF0DB00DFF3E031D21
:10089800462C0130B902031D2D2C0930B100310856
:1008A800B9002B1C652C2E08B6072F080311031856
:1008B8002F0A031DB707300803110318300A031D58
:1008C800B80701300310AD0CAC0CAB0CFF3E031D98
:1008D800662C01300310B80CB70CB60CFF3E031D94
:1008E8006E2C0130B902031D552C3608A0003708BC
:1008F800A1003808A2003508B1003108A3003A0861
:10090800B2003208A4000A128A114826831203137F
:100918002008AB002108AC002208AD0008008312B3
:1009280003133E08C1003F08C2004008C30003107B
:10093800420D430DC4004408C9004908031DAB2CEF
:100948000030BB000030BC000030BD0008003B0890
:10095800C1003C08C2003D08C3000310420D430D0E
:10096800C4004408CA004A08031DC12C0030BB005B
:100978000030BC000030BD0008000030C600003068
:10098800C7000030C80089304A07C1004108C902C1
:100998003E08C1003F08C2004008C30010300310E1
:1009A800C30CC20CC10CFF3E031DD32C4108C4006C
:1009B8004408CA003B08C1003C08C2003D08C30007
:1009C80010300310C30CC20CC10CFF3E031DE52CF4
:1009D8004108C4004408CA068030C1004108CA055D
:1009E800BF17FF30BE05FF30BF050030C005BC177C
:1009F800FF30BB05FF30BC050030BD051830C10015
:100A08004108C50001300310C60DC70DC80DFF3ED3
:100A1800031D072D3D084002031D182D3C083F0209
:100A2800031D182D3B083E02031C252D3B08BE0262
:100A38003C08031C3C0FBF023D08031C3D0AC002D2
:100A4800461401300310BE0DBF0DC00DFF3E031D3F
:100A5800262D0130C502031D062D4608A0004708B3
:100A6800A1004808A2004908C1004108A3004A089B
:100A7800C2004208A4000A128A11482683120313EE
:100A88002008BB002108BC002208BD000800831212
:100A980003135808DC005908DD005A08DE0003106B
:100AA8005D0D5E0DDF005F08E5006508031D652D1F
:100AB8000030DB000030DA000030D9000030D80008
:100AC80008005808DC005908DD005A08DE00173015
:100AD8000310DE0CDD0CDC0CFF3E031D6C2D5C08E6
:100AE800DF005F08E000D917FF30D805FF30D905CF
:100AF8000030DA055808E1005908E2005A08E30016
:100B0800E4018E30E502E51FA72D6508803A8F3E87
:100B18000318972D0030DB000030DA000030D900D0
:100B28000030D800080001300310E40CE30CE20C9C
:100B3800E10CFF3E031D982D0130DC005C08E50741
:100B48000319C22D972D18306502031CBF2D0030E4
:100B5800DB000030DA000030D9000030D80008008F
:100B68000130DC000310E10DE20DE30DE40DDC0BB8
:100B7800B62D0130E5026508031DB42D6008031980
:100B8800D02DE109E209E309E409E10A0319E20ABF
:100B98000319E30A0319E40A6408DB006308DA00AE
:100BA8006208D9006108D8000800003083120313D6
:100BB800AF000030AE000030AD006430AC008316EA
:100BC8000313120883120313BD00BE010310BD0DE9
:100BD800BE0D0310BD0DBE0D3D08043EA0003E082D
:100BE8000318013E003EA100A201A11BA203220896
:100BF800A3003C08A7003B08A6003A08A50039084E
:100C0800A4000A128A154E260A128A1183120313A7
:100C18002308B3002208B2002108B1002008B00060
:100C28000A128A1180270A128A11831203132F08C5
:100C3800BC002E08BB002D08BA002C08B9003908E2
:100C4800BD0003300310BD0DFF3E031D262E03100B
:100C58003D0DBE00BE0E17083E06CF393E06970072
:100C68003908BD003A08BE003B08BF003C08C00078
:100C780002300310C00CBF0CBE0CBD0CFF3E031DA0
:100C88003D2E3D089500080083120313230803191D
:100C9800522E220821042004031D652E0030A000D6
:100CA8000030A1000030A20008000130A50025088E
:100CB800A30701300310A20CA10CA00CFF3E031DDA
:100CC8005E2EFE3022050319802E592E0130A50014
:100CD8002508A3070130A007003003180130A10739
:100CE800003003180130A20701300310A20CA10C38
:100CF800A00CFF3E031D792EFF30220503198F2E0D
:100D08006A2E0130A30201300310A00DA10DA20D1F
:100D1800FF3E031D882EA11B952E023023020318C7
:100D2800852E23189D2EFF30A0057F30A105FF30AA
:100D3800A2050310A30C2308A500A601A7011030E3
:100D48000310A50DA60DA70DFF3E031DA42E250813
:100D5800A0042608A1042708A204240803190800EF
:100D6800A217080083120313AE01AF018C1AEE2EEE
:100D78000A128A15F5230A128A11740883120313BA
:100D8800A8007508A900AA01AB012E08AC00013023
:100D98000310AC0DFF3E031DCC2E03102C0D6E0767
:100DA800AD002D088400280883138000840A2908D0
:100DB8008000840A2A088000840A2B0880008C1A84
:100DC800E72EF701F70A0130AE070318AF0A003023
:100DD800AF07BA2E861BF32E770803190800B00157
:100DE800B1018316031398181D2F83123008A80029
:100DF80001300310A80DFF3E031DFD2E0310280D22
:100E08006E07A9002908840083130008A000840A3B
:100E180000088403A1000A128A1563250A128A11A0
:100E2800013083120313B0070318B10A0030B10769
:100E3800F52EF701080000300A128A1571240A12EB
:100E48008A111A3083120313A300F730A200A20BF1
:100E58002B2FA30B2B2F302F03300A128A11E027D8
:100E68000A128A11073083120313A3007C30A200F0
:100E7800A20B3C2FA30B3C2F000003300A128A114F
:100E8800E0270A128A110F3083120313A300473098
:100E9800A200A20B4D2FA30B4D2F03300A128A116B
:100EA800E0270A128A1102300A128A11E0270A1270
:100EB8008A1102300A128A11E0270A128A110830B0
:100EC8000A128A11E0270A128A1100300A128A11BE
:100ED800E0270A128A110C300A128A11E0270A1236
:100EE8008A1100300A128A11E0270A128A11063084
:100EF8000A128A11E0270800003083120313B70092
:100F08000030B6000030B5000030B4002F082E04C1
:100F18002D042C040319D72FB801B80AAF1BA22F30
:100F28000130F5000310AC0DAD0DAE0DAF0DF50B96
:100F3800962F0130F5007508B807922F0130F5009B
:100F48000310B40DB50DB60DB70DF50BA42F2F0872
:100F58003302031DB92F2E083202031DB92F2D08A5
:100F68003102031DB92F2C083002031CCA2F2C088C
:100F7800B0022D08031C2D0FB1022E08031C2E0FE2
:100F8800B2022F08031C2F0FB302341401300310D0
:100F9800AF0CAE0CAD0CAC0CFF3E031DCB2F0130DB
:100FA800B802031DA22F3708AF003608AE00350877
:100FB800AD003408AC000800F50083120313861254
:100FC80075080A128A1571240A128A1183120313EA
:100FD8000616063083120313A1002F30A000A00BC1
:100FE800F32FA10BF32FF82F831203130612080017
:040FF80018340800A1
:10100000FF1B0A2883137F1883170008840A03191B
:10101000FF0A080008308A000408840A82070034A6
:10102000013400340A34003464340034E8340334C6
:1010300010342734543465346D347034653472346C
:10104000613474347534723465343A340034323473
:101050003034313431343434373432343934363452
:10106000003441346B3469346C3469346D34613428
:0E1070006C3469340034253433346434003475
:10179E00831603138F019001080083160313981C00
:1017AE00D42B740883120313990008003F340634B7
:1017BE005B344F3466346D347D3407347F346F348C
:1017CE002234831203139416F03094059413831667
:1017DE0003138C15831203138C1108008312031349
:1017EE008C1A0800831203131A08A000A101200806
:1017FE00F4002108F5000800F500F4013A307502F6
:10180E0003180F2C30307502031C0F2CF401F40A50
:10181E00740C08008B170B17831603130C17831207
:10182E0003130C13831603138C16831203138C12DB
:10183E0008008B160B1183160313811281110108F8
:10184E00F8390538810064308312031381000800D3
:10185E007E088A007F0882002F240A128A158000D3
:10186E00840A04087D0603190034FF0A0319FE0AD0
:10187E00332C831203132808A0002908A100A2010B
:10188E008E30F4007408A300A4010A128A114826AF
:10189E00831203132008A8002108A9002208AA0019
:1018AE000800831203131F083F3940389F00C330CE
:1018BE009F059F109F1C672C831203139F146A2C85
:1018CE00831203139F101F14831603139F171F12E7
:1018DE009F120800F400741C782C831203138615D3
:1018EE007B2C831203138611F41C7F2C0615802C7F
:1018FE000611741D842C8614852C8610F41D892CDB
:10190E000614080006100800F401F50183120313F3
:10191E00201C972C2208F4070318F50A2308F50754
:10192E0001300310A20DA30DFF3E031D982C0130B4
:10193E000310A10CA00CFF3E031D9F2C20082104B8
:10194E00031D8D2C7508A1007408A00008008316D5
:10195E0003138C1EB72C831203138C1EB72C8C1200
:10196E00831603130C1FC02C831203130C1FC02CE1
:10197E000C138B1A0B1DC42C0B11831603138C1D09
:10198E00CD2C831203138C1DCD2C8C117308831256
:10199E00FF0072088A0071088400700E8300FE0E2C
:1019AE007E0E09008316031388018316031789011F
:1019BE00831603138601061786170711831603175E
:1019CE00881008118811081283160313851005114B
:1019DE008511051283160317081488128316031334
:1019EE0005148712071685128711831203138501BA
:1019FE00860187018801890108000A128A151527B8
:101A0E000A128A15152D0A128A11B6260A128A157D
:101A1E00152D0A128A11FD270A128A150A128A1525
:101A2E0060270A128A157808003A03190A2D013A1E
:101A3E000319102D033A0319152D063A0319152D06
:101A4E00013A0319152D033A0319152D152D152DD0
:101A5E00831203132708280403195E2DAB01AB0A6A
:101A6E00A81B452D01300310A70DA80DFF3E031D29
:101A7E003A2D0130F5007508AB07372D28082A02DC
:101A8E00031D4B2D27082902031C532D2708A902DD
:101A9E002808031CAA03AA0201300310A80CA70CE5
:101AAE00FF3E031D542D0130AB02031D452D2A08A8
:101ABE00A8002908A700080083120313A601A70196
:101ACE0026082007A20027080318270A2107A300CB
:101ADE00220884008317231C8313000803190800AF
:101AEE0026082007A20027080318270A2107A300AB
:101AFE00220884008317231C83130008A400A50169
:101B0E002408F4002508F5000A128A15D4230A12B7
:101B1E008A15013083120313A6070318A70A003093
:101B2E00A707672D83120313A20022080F39F500B1
:101B3E007508A0002208F039F5007508A100861678
:101B4E002108F50004300310F50CFF3E031DAA2DED
:101B5E0075080A128A1571240A128A158312031344
:101B6E0006160D30F500F50BBA2D8312031306126F
:101B7E0020080A128A1571240A128A158312031379
:101B8E0006160D30F500F50BCA2D8312031306123F
:101B9E00080083120313A501A601200821040319CE
:101BAE00092EA401A40AA11BE82D01300310A00DDB
:101BBE00A10DFF3E031DDD2D0130F4007408A407B6
:101BCE00DA2D01300310A50DA60DFF3E031DE92DE4
:101BDE0021082302031DF52D20082202031CFE2DD1
:101BEE002008A2022108031CA303A302251401301E
:101BFE000310A10CA00CFF3E031DFF2D0130A4020B
:101C0E00031DE82D2608A1002508A0000800831654
:101C1E000313071787179816181218138312031336
:101C2E00981718161813831603131815831603170F
:101C3E008711831203133908AC003A08AD00AE01C8
:101C4E00AF010030B3003D30B2000930B1000030BA
:101C5E00B0000A128A1180270A128A158312031302
:101C6E002C08BB002D08BC002E08BD002F08BE009E
:101C7E0004300310BE0CBD0CBC0CBB0CFF3E031D90
:101C8E00402E3B08FF3E83160313990008000030D8
:101C9E0083120313AB000030AA000030A9000030FD
:101CAE00A800201C6E2E2408A8072508031103186F
:101CBE00013E031DA907260803110318013E031D4B
:101CCE00AA07270803110318013E031DAB070130B5
:101CDE00F4000310A40DA50DA60DA70DF40B702E88
:101CEE0001300310A30CA20CA10CA00CFF3E031D8F
:101CFE00782E2308220421042004031D582E2B08BD
:101D0E00A3002A08A2002908A1002808A0000800A4
:101D1E0083120313A801A90128082307A60024088B
:101D2E00A5000318A50AA81BA503831203132508F3
:101D3E00A7002708FF00260884000A128A15002033
:101D4E000A128A15003A0319080028082307A6006C
:101D5E002408A5000318A50AA81BA50383120313C4
:101D6E002508A7002708FF00260884000A128A15F6
:101D7E0000200A128A150A128A1599250A128A1546
:101D8E00013083120313A8070318A90A0030A9070C
:101D9E00932E831603130715831203133908BD0000
:101DAE003A08BE003B08BF003C08C00002300310DA
:101DBE00BD0DBE0DBF0DC00DFF3E031DDE2E400836
:101DCE00AF003F08AE003E08AD003D08AC0000304D
:101DDE00B3003D30B2000930B1000030B0000A123D
:101DEE008A118027831203132C08FF3E83160313D8
:101DFE0092003F308312031397051708F0390C3801
:101E0E009700CF30970595018C1087309205FC30E6
:101E1E009205121583160313071108000A128A156C
:101E2E00CF230A128A150A128A1511240A128A154C
:101E3E000A128A15D9240A128A150A128A111F2724
:101E4E000A128A150A128A1558240A128A150A12BB
:101E5E008A1520240A128A15003083120313BC003F
:101E6E000030BB002730BA001030B9000A128A15B4
:101E7E00D0260A128A15003083120313BC000030DC
:101E8E00BB000030BA004630B9000A128A11D925BB
:101E9E000A128A150A128A15E8230A128A15803048
:101EAE0083120313B9002530BA000A128A150E26C2
:101EBE0008000B3083160313AF002F088312031391
:101ECE00ED00A201A20A01300A128A15AE270A12EB
:101EDE008A15831203136D08A3000030031D803092
:101EEE00A4000A128A158F260A128A152C30831620
:101EFE000313AF002F08A0000A128A11D8220A126B
:101F0E008A1583160313B000B1013008A100310801
:101F1E00A200C3300A128A113B200A128A150D3014
:101F2E0083160313AF002F0883120313A200013090
:101F3E000A128A15AE270A128A15C33083120313AA
:101F4E00A3000030A4000A128A158F2608008312FF
:101F5E000313A5002503031DD72F22087F3EA300E0
:101F6E002308A8002808A30004300310A30CFF3E8A
:101F7E00031DBC2F2308A4002408A60028080F392F
:101F8E00A3002308A70026080A128A11E0270A12C6
:101F9E008A158312031327080A128A11E0270800F4
:101FAE000230831203132506031D08002208BF3ECC
:101FBE00A3002308A8002808A30004300310A30CD4
:101FCE00FF3E031DE52F2308A4002408A6002808C1
:101FDE000F39A3002308A70026080A128A11E0274A
:101FEE000A128A158312031327080A128A11E02790
:021FFE000800D9
:04400E00F2FCFFFFC2
:00000001FF
