:060000000A128A11122809
:10000800FE00030EF0000408F1000A08F200831253
:1000180003137F08F3000A128A15572D0A128A1152
:1000280015288313BD30FD000C30FE007730FF002B
:10003800B13084000A128A15C02483160313BD0147
:10004800BE01BF01C001C101C201C301C401F60163
:10005800F701F801F90183010A128A15822D831626
:100068000313A8006E30A0002008A30001308312FB
:100078000313ED07FF306D0784000A128A150A2062
:100088000A128A1183160313A0002008AB002B085C
:100098000319CC2925302B0603195E282B08A0004C
:1000A800280884002008831380000130A00020085D
:1000B800A8073A28A901AA01A501831203136D080C
:1000C80084000A128A150A200A128A110A128A154D
:1000D80090240A128A11031CC32883160313A9014A
:1000E800AA010A3083120313A0000030A10083166E
:1000F80003132A0883120313A30083160313290882
:1001080083120313A2000A128A1534250A128A11CF
:1001180083120313210883160313AA0083120313FF
:10012800200883160313A900831203136D088400A3
:100138000A128A150A200A128A11D03E831603135E
:10014800A000FF3003180030A1002008A9070318F9
:10015800AA0A2108AA070130A00020088312031365
:10016800ED076D0884000A128A150A200A128A11FE
:100178000A128A1590240A128A1103187528013068
:1001880083120313ED07FF306D0784000A128A15E6
:100198000A200A128A1183160313AB00003A0319C6
:1001A800CC29643A0319DC280D3A0319DC283A28CB
:1001B800831603132308840083130008A600840A07
:1001C8000008A7000230A0002008A307A71FF528F1
:1001D8000330A0002008A504A609A709A60A031948
:1001E800A70AAB01AB0A05302B0603191C292B08FB
:1001F800A0002007013E84000A128A150A200A126C
:100208008A11A1000A128A150A200A128A11A2006C
:1002180022082702031D122921082602031C1C2973
:100228000130A0002008AB0705302B06031DFB2872
:1002380029082A0403192A292508033903192A2910
:10024800FF30A9070318AA0AFF30AA072B08A00045
:10025800A101A01BA1032108803AA2002A08803A24
:100268002202031D39292908200203184929831667
:1002780003132B08A000A101A01BA1032008A902B9
:100288002108031CAA03AA024D2983160313A901F6
:10029800AA0129082A04031966292030A000280881
:1002A80084002008831380000130A0002008A807DC
:1002B800FF30A9070318AA0AFF30AA0729082A0449
:1002C800031D512925080339031975292D30A0006C
:1002D800280884002008831380000130A00020082B
:1002E800A8072B08A0002008A400FF30A0002008C1
:1002F800A407240A03193A280A3083120313A70013
:100308000030A800831603132408A0002007013E2C
:1003180084000A128A150A200A128A11831203130A
:10032800A0000A128A150A200A128A11A10083164F
:100338000313270883120313A30083160313260845
:1003480083120313A2000A128A151E260A128A11A2
:10035800831203132108AA002008A9000A128A158B
:10036800B3250A128A11831203132708303E831615
:100378000313A1002108AB002B08A0002808840063
:100388002008831380000130A0002008A8077929DD
:10039800831603132808840083138001080083123E
:1003A80003134B08D1004C08D2004D08D3000310AA
:1003B800520D530DD4005408D7004E08D1004F08F1
:1003C800D2005008D3000310520D530DD400540826
:1003D800D60057080319FC29560857020318032AA0
:1003E8005703FF3A5607D10019305102031C032A5C
:1003F8004E08CB004F08CC005008CD000800560826
:1004080003190800570856020318122A5603FF3A20
:100418005707D10019305102031808000630D100DF
:100428005108D500CD1BD517D01B5517CC17FF3059
:10043800CB05FF30CC050030CD05CF17FF30CE05FA
:10044800FF30CF050030D005560857020318522A4E
:1004580001300310CE0DCF0DD00DFF3E031D2D2A08
:100468000130D6025608570603194D2A0130D50225
:100478005508073903194D2A2C2A01300310CD0CD1
:10048800CC0CCB0CFF3E031D422A0130D100510891
:10049800D7075708560603197B2A412A57085602D8
:1004A80003187B2A01300310CB0DCC0DCD0DFF3E78
:1004B800031D572A0130D702560857060319772A11
:1004C8000130D502550807390319772A562A013011
:1004D8000310D00CCF0CCE0CFF3E031D6C2A01304C
:1004E800D1005108D60757085606031D6B2AD51F99
:1004F8008D2AFF30CB06FF30CC06FF30CD06013009
:10050800CB07003003180130CC0700300318013046
:10051800CD07551F9F2AFF30CE06FF30CF06FF308C
:10052800D0060130CE07003003180130CF07003065
:1005380003180130D007D5014B08CE074C0803112A
:1005480003184C0A031DCF074D08031103184D0A61
:10055800031DD007D01FC22AFF30CE06FF30CF06BA
:10056800FF30D0060130CE07003003180130CF0726
:10057800003003180130D007D501D50A4E08A00075
:100588004F08A1005008A2005708D1005108A30045
:100598005508D2005208A4000A128A114C26831268
:1005A80003132008CB002108CC002208CD00080046
:1005B800073083120313E7007C30E600E60BE22ADB
:1005C800E70BE22A0000831203139F140C1FEA2A88
:1005D800831603131E0883120313E60066088316A6
:1005E8000313C100831203131E08E600660883166E
:1005F8000313C20083120313EB01EC016C08803A69
:10060800FF0080307F02031D0B2B0A306B0203189A
:10061800C22B831603134108BD070318BE0A4208FC
:10062800BE070930831203136B066C04031DB12B3C
:100638000B30A0000030A100831603133E0883127C
:100648000313A300831603133D0883120313A200A8
:100658000A128A151E260A128A1183120313210808
:1006680083160313BE008312031320088316031393
:10067800BD003E0883120313A900831603133D0827
:1006880083120313A8000A128A15CD240A128A11AC
:10069800831203132808AE002908AF002A08B00007
:1006A8004030AB009C30AC004530AD000A128A11D6
:1006B800C4230A128A11831203132B08BE002C08C4
:1006C800BF002D08C000C030BB007F30BC004430E4
:1006D800BD000A128A1197240A128A118312031381
:1006E8003B08CE003C08CF003D08D0000030CB00CE
:1006F800FA30CC00C330CD000A128A11D3210A1275
:100708008A11831203134B08E8004C08E9004D08CE
:10071800EA006808BE006908BF006A08C000003027
:10072800BB002030BC004130BD000A128A1197245A
:100738000A128A11831203133B08D8003C08D90017
:100748003D08DA000A128A114F250A128A1183120B
:1007580003135808E6006608F8000130EB07031891
:10076800EC0A0030EC076C08803AFF0080307F020A
:10077800031DC02B0A306B02031C0D2B78080800E0
:10078800831203132B08B1002C08B2002D08B30004
:100798000310320D330DB4003408B5003508031DBD
:1007A800DC2B0030AB000030AC000030AD0008009E
:1007B8002E08B1002F08B2003008B3000310320D24
:1007C800330DB4003408BA003A08031DF22B003088
:1007D800AB000030AC000030AD0008003A087B3EAA
:1007E800B1003108B5072B08B1002C08B2002D085C
:1007F800B30010300310B30CB20CB10CFF3E031D54
:10080800FE2B3108B4003408BA002E08B1002F08B6
:10081800B2003008B30010300310B30CB20CB10CA6
:10082800FF3E031D102C3108B4003408BA0680308E
:10083800B1003108BA05AC17AF17FF30AE05FF306D
:10084800AF050030B0050030B6000030B70000300A
:10085800B8000730B1003108B9002B1C412C2E0814
:10086800B6072F08031103182F0A031DB70730080E
:1008780003110318300A031DB80701300310AD0C2B
:10088800AC0CAB0CFF3E031D422C01300310AE0D27
:10089800AF0DB00DFF3E031D4A2C0130B902031DF8
:1008A800312C0930B1003108B9002B1C692C2E08F5
:1008B800B6072F08031103182F0A031DB7073008BE
:1008C80003110318300A031DB80701300310AD0CDB
:1008D800AC0CAB0CFF3E031D6A2C01300310B80CA6
:1008E800B70CB60CFF3E031D722C0130B902031D74
:1008F800592C3608A0003708A1003808A20035088E
:10090800B1003108A3003A08B2003208A4000A1264
:100918008A114C26831203132008AB002108AC006F
:100928002208AD000800831203133E08C1003F08E7
:10093800C2004008C3000310420D430DC400440820
:10094800C9004908031DAF2C0030BB000030BC00B3
:100958000030BD0008003B08C1003C08C2003D084B
:10096800C3000310420D430DC4004408CA004A08DE
:10097800031DC52C0030BB000030BC000030BD009A
:1009880008000030C6000030C7000030C8008930B9
:100998004A07C1004108C9023E08C1003F08C20019
:1009A8004008C30010300310C30CC20CC10CFF3E3A
:1009B800031DD72C4108C4004408CA003B08C100E5
:1009C8003C08C2003D08C30010300310C30CC20C21
:1009D800C10CFF3E031DE92C4108C4004408CA06A7
:1009E8008030C1004108CA05BF17FF30BE05FF307F
:1009F800BF050030C005BC17FF30BB05FF30BC0584
:100A08000030BD051830C1004108C5000130031091
:100A1800C60DC70DC80DFF3E031D0B2D3D08400236
:100A2800031D1C2D3C083F02031D1C2D3B083E02E4
:100A3800031C292D3B08BE023C08031C3C0FBF02C7
:100A48003D08031C3D0AC002461401300310BE0DC8
:100A5800BF0DC00DFF3E031D2A2D0130C502031D29
:100A68000A2D4608A0004708A1004808A200490826
:100A7800C1004108A3004A08C2004208A4000A12A3
:100A88008A114C26831203132008BB002108BC00DE
:100A98002208BD000800831203135808DC00590817
:100AA800DD005A08DE0003105D0D5E0DDF005F08F3
:100AB800E5006508031D692D0030DB000030DA0011
:100AC8000030D9000030D80008005808DC00590868
:100AD800DD005A08DE0017300310DE0CDD0CDC0CDC
:100AE800FF3E031D702D5C08DF005F08E000D9178A
:100AF800FF30D805FF30D9050030DA055808E10085
:100B08005908E2005A08E300E4018E30E502E51FC7
:100B1800AB2D6508803A8F3E03189B2D0030DB0013
:100B28000030DA000030D9000030D8000800013069
:100B38000310E40CE30CE20CE10CFF3E031D9C2DBA
:100B48000130DC005C08E5070319C62D9B2D183021
:100B58006502031CC32D0030DB000030DA000030D2
:100B6800D9000030D80008000130DC000310E10D86
:100B7800E20DE30DE40DDC0BBA2D0130E50265084A
:100B8800031DB82D60080319D42DE109E209E30912
:100B9800E409E10A0319E20A0319E30A0319E40A5A
:100BA8006408DB006308DA006208D9006108D8002D
:100BB8000800003083120313AF000030AE0000308D
:100BC800AD006430AC0083160313120883120313BC
:100BD800BD00BE010310BD0DBE0D0310BD0DBE0D41
:100BE8003D08043EA0003E080318013E003EA10057
:100BF800A201A11BA2032208A3003C08A7003B08EE
:100C0800A6003A08A5003908A4000A128A159C26ED
:100C18000A128A11831203132308B3002208B200B0
:100C28002108B1002008B0000A128A111B270A12F5
:100C38008A11831203132F08BC002E08BB002D084D
:100C4800BA002C08B9003908BD0003300310BD0DE7
:100C5800FF3E031D2A2E03103D0DBE00BE0E1708D1
:100C68003E06CF393E0697003908BD003A08BE0057
:100C78003B08BF003C08C00002300310C00CBF0C8A
:100C8800BE0CBD0CFF3E031D412E3D08950008001B
:100C98008312031323080319562E22082104200463
:100CA800031D692E0030A0000030A1000030A20012
:100CB80008000130A5002508A30701300310A20C85
:100CC800A10CA00CFF3E031D622EFE302205031965
:100CD800842E5D2E0130A5002508A3070130A0074A
:100CE800003003180130A107003003180130A207B3
:100CF80001300310A20CA10CA00CFF3E031D7D2E99
:100D0800FF3022050319932E6E2E0130A302013005
:100D18000310A00DA10DA20DFF3E031D8C2EA11BDB
:100D2800992E023023020318892E2318A12EFF3092
:100D3800A0057F30A105FF30A2050310A30C2308EE
:100D4800A500A601A70110300310A50DA60DA70D3B
:100D5800FF3E031DA82E2508A0042608A104270885
:100D6800A204240803190800A217080000300A1278
:100D78008A15FE240A128A111A3083120313A3005B
:100D8800F730A200A20BC62EA30BC62ECB2E033023
:100D98000A128A1518250A128A11073083120313BA
:100DA800A3007C30A200A20BD72EA30BD72E0000E5
:100DB80003300A128A1518250A128A110F30831275
:100DC8000313A3004730A200A20BE82EA30BE82EC2
:100DD80003300A128A1518250A128A1102300A12DB
:100DE8008A1518250A128A1102300A128A1518253E
:100DF8000A128A1108300A128A1518250A128A114D
:100E080000300A128A1518250A128A110C300A12A3
:100E18008A1518250A128A1100300A128A1518250F
:100E28000A128A1106300A128A151825080000309D
:100E380083120313B7000030B6000030B50000304D
:100E4800B4002F082E042D042C040319722FB801A6
:100E5800B80AAF1B3D2F0130F5000310AC0DAD0DE6
:100E6800AE0DAF0DF50B312F0130F5007508B80741
:100E78002D2F0130F5000310B40DB50DB60DB70DCB
:100E8800F50B3F2F2F083302031D542F2E08320273
:100E9800031D542F2D083102031D542F2C08300236
:100EA800031C652F2C08B0022D08031C2D0FB1025E
:100EB8002E08031C2E0FB2022F08031C2F0FB3029B
:100EC800341401300310AF0CAE0CAD0CAC0CFF3E6B
:100ED800031D662F0130B802031D3D2F3708AF00F0
:100EE8003608AE003508AD003408AC0008000B30F9
:100EF80083160313AC002C08AF0083120313A2015E
:100F0800A20A01300A128A15AE270A128A1183161C
:100F180003132F0883120313A3000030031D80302E
:100F2800A4000A128A15DD260A128A112C308316AB
:100F38000313AC002C0883120313ED000A128A1164
:100F4800DC220A128A1183160313AD00AE012D08A4
:100F580083120313EE00831603132E088312031360
:100F6800EF00C3300A128A1133200A128A110D3099
:100F780083160313AC002C0883120313A20001305C
:100F88000A128A15AE270A128A11C3308312031374
:100F9800A3000030A4000A128A15DD260800831673
:100FA8000313880183160317890183160313860127
:100FB800061786170711831603178810081188115A
:100FC800081283160313851005118511051283165F
:100FD80003170814881283160313051487120716BB
:100FE8008512871183120313850186018701880101
:040FF8008901080063
:10100000FF1B0A2883137F1883170008840A03191B
:10101000FF0A080008308A000408840A82070034A6
:10102000013400340A34003464340034E8340334C6
:1010300010342734543465346D347034653472346C
:10104000613474347534723465343A340034323473
:101050003034313431343434373432343934363452
:10106000003441346B3469346C3469346D34613428
:0E1070006C3469340034253433346434003475
:1018E400831603138F01900108003F3406345B34E0
:1018F4004F3466346D347D3407347F346F3422348E
:101904001834831203139416F03094059413831639
:1019140003138C15831203138C110800F500F401D2
:101924003A30750203189C2C30307502031C9C2C31
:10193400F401F40A740C08008B170B1783160313B5
:101944000C17831203130C13831603138C168312C0
:1019540003138C1208008B160B11831603138112C8
:1019640081110108F83905388100643083120313AA
:10197400810008007E088A007F088200BC240A12C5
:101984008A158000840A04087D0603190034FF0ABE
:101994000319FE0AC02C831203132808A000290887
:1019A400A100A2018E30F4007408A300A4010A125D
:1019B4008A114C26831203132008A8002108A900C9
:1019C4002208AA000800831203131F083F39403875
:1019D4009F00C3309F059F109F1CF42C8312031398
:1019E4009F14F72C831203139F101F1483160313E1
:1019F4009F171F129F120800F400741C052D8312F8
:101A040003138615082D831203138611F41C0C2D61
:101A140006150D2D0611741D112D8614122D861018
:101A2400F41D162D0614080006100800F500831294
:101A34000313861275080A128A15FE240A128A15DF
:101A4400831203130616063083120313A1002F30EA
:101A5400A000A00B2B2DA10B2B2D302D83120313D3
:101A640006120800F401F50183120313201C402D13
:101A74002208F4070318F50A2308F50701300310B8
:101A8400A20DA30DFF3E031D412D01300310A10C37
:101A9400A00CFF3E031D482D20082104031D362DF4
:101AA4007508A1007408A0000800831603138C1E97
:101AB400602D831203138C1E602D8C128316031366
:101AC4000C1F692D831203130C1F692D0C138B1A21
:101AD4000B1D6D2D0B11831603138C1D762D831294
:101AE40003138C1D762D8C1173088312FF0072086A
:101AF4008A0071088400700E8300FE0E7E0E0900B9
:101B04000A128A1563270A128A15992DF901F90A0E
:101B1400992D0230922D0430922D0530922D0630ED
:101B240083160313B0003008F900992DF9010A1245
:101B34008A117B270A128A157908003A0319882D1D
:101B4400013A03198B2D033A03198D2D063A031913
:101B54008F2D013A0319912D033A0319982D992DCC
:101B6400992D83120313270828040319E22DAB01CE
:101B7400AB0AA81BC92D01300310A70DA80DFF3E09
:101B8400031DBE2D0130F5007508AB07BB2D2808D9
:101B94002A02031DCF2D27082902031CD72D27084D
:101BA400A9022808031CAA03AA0201300310A80CE6
:101BB400A70CFF3E031DD82D0130AB02031DC92D18
:101BC4002A08A8002908A700080083120313A2000A
:101BD40022080F39F5007508A0002208F039F50035
:101BE4007508A10086162108F50004300310F50CD1
:101BF400FF3E031DF82D75080A128A15FE240A12E9
:101C04008A158312031306160D30F500F50B082E02
:101C140083120313061220080A128A15FE240A12DC
:101C24008A158312031306160D30F500F50B182ED2
:101C3400831203130612080083120313A501A601DD
:101C4400200821040319572EA401A40AA11B362E2F
:101C540001300310A00DA10DFF3E031D2B2E0130FA
:101C6400F4007408A407282E01300310A50DA60D56
:101C7400FF3E031D372E21082302031D432E200897
:101C84002202031C4C2E2008A2022108031CA303D9
:101C9400A302251401300310A10CA00CFF3E031D68
:101CA4004D2E0130A402031D362E2608A10025085E
:101CB400A000080083160313071787179816181235
:101CC4001813831203139817181618138316031383
:101CD4001815831603178711831203133908AC00F0
:101CE4003A08AD00AE01AF010030B3003D30B200A0
:101CF4000930B1000030B0000A128A111B270A1201
:101D04008A15831203132C08BB002D08BC002E086F
:101D1400BD002F08BE0004300310BE0CBD0CBC0C6B
:101D2400BB0CFF3E031D8E2E3B08FF3E83160313A0
:101D340099000800003083120313AB000030AA009E
:101D44000030A9000030A800201CBC2E2408A807DD
:101D5400250803110318013E031DA90726080311D2
:101D64000318013E031DAA07270803110318013EA7
:101D7400031DAB070130F4000310A40DA50DA60D3F
:101D8400A70DF40BBE2E01300310A30CA20CA10C62
:101D9400A00CFF3E031DC62E2308220421042004A8
:101DA400031DA62E2B08A3002A08A2002908A100BF
:101DB4002808A000080083120313A801A901280819
:101DC4002307A6002408A5000318A50AA81BA50339
:101DD400831203132508A7002708FF0026088400A0
:101DE4000A128A1500200A128A15003A03190800FB
:101DF40028082307A6002408A5000318A50AA81B81
:101E0400A503831203132508A7002708FF0026084B
:101E140084000A128A1500200A128A150A128A15E9
:101E2400E7250A128A15013083120313A807031841
:101E3400A90A0030A907E12E83160313071583129C
:101E440003133908BD003A08BE003B08BF003C0834
:101E5400C00002300310BD0DBE0DBF0DC00DFF3E0E
:101E6400031D2C2F4008AF003F08AE003E08AD0014
:101E74003D08AC000030B3003D30B2000930B10081
:101E84000030B0000A128A111B27831203132C0896
:101E9400FF3E8316031392003F308312031397050A
:101EA4001708F0390C389700CF30970595018C103E
:101EB40087309205FC30920512158316031307111F
:101EC40008000A128A1572240A128A150A128A153F
:101ED4009E240A128A150A128A11D3270A128A1515
:101EE4000A128A11BA260A128A150A128A15E524D8
:101EF4000A128A150A128A15AD240A128A150030AC
:101F040083120313BC000030BB002730BA0010302A
:101F1400B9000A128A151E270A128A150030831284
:101F24000313BC000030BB000030BA004630B900D7
:101F34000A128A11DD250A128A150A128A158324C7
:101F44000A128A15803083120313B9002530BA00AF
:101F54000A128A155C26080083120313A5002503C0
:101F6400031DD72F22087F3EA3002308A8002808BA
:101F7400A30004300310A30CFF3E031DBC2F230851
:101F8400A4002408A60028080F39A3002308A700EA
:101F940026080A128A1518250A128A1583120313B1
:101FA40027080A128A151825080002308312031321
:101FB4002506031D08002208BF3EA3002308A8002D
:101FC4002808A30004300310A30CFF3E031DE52FD3
:101FD4002308A4002408A60028080F39A300230816
:101FE400A70026080A128A1518250A128A158312D0
:0C1FF400031327080A128A15182508009C
:04400E00F2FCFFFFC2
:00000001FF
