:060000000A128A11122809
:10000800FE00030EF0000408F1000A08F200831253
:1000180003137F08F3000A128A11E62D0A128A11C7
:1000280015288313D630FD000430FE00F730FF009A
:10003800A03084000A128A1101260A128A11593046
:10004800FD000530FE00CF30FF00423084000A1268
:100058008A1101260A128A110A128A114A260A12DC
:100068008A11F900D6308400E0300A128A113C2641
:100078000A128A11593084006E300A128A113C26FD
:10008800F601F701F80183010A128A116629FF1B9C
:10009800552883137F1883170008840A0319FF0A59
:1000A800080000308A000408840A820700340134FA
:1000B8000034003400340A3400340034003464342A
:1000C800003400340034E83403340034003410348D
:1000D800273400340034A0348634013400344034EA
:1000E80042340F3400348034963498340034003469
:1000F800E134F53405340034CA349A343B340034DE
:1001080080343F340034203441340034C83442341D
:1001180000347A34443440341C3446345034C334C4
:100128004734243474344934973418344B34BC3449
:10013800BE344C346B346E344E340334153450347E
:100148007934AD346034F334493471340034803454
:100158003F34CD34CC343D34D73423343C3412349A
:1001680083343A34B734D1343834C6342734373446
:10017800383486343534C034D6343334CC342B3424
:100188003234703489343034E734DB342E34E53497
:100198003C341E344234A2340D34573445344C3484
:1001A80043344F344D344534203454344F342034A0
:1001B800593441344C3441340034543465346D344A
:1001C800703465347234613474347534723465341F
:1001D8003A34003425342E3432346634003425342D
:1001E800343464340034003083120313AF00003019
:1001F800AE000030AD006430AC0083160313120863
:1002080083120313BD00BE010310BD0DBE0D031004
:10021800BD0DBE0D3D08043EA0003E080318013E7A
:10022800003EA100A201A11BA2032208A3003C08D2
:10023800A7003B08A6003A08A5003908A4000A123E
:100248008A11FE230A128A11831203132308B300AA
:100258002208B2002108B1002008B0000A128A1151
:10026800D0210A128A11831203132F08BC002E080A
:10027800BB002D08BA002C08B9003908BD000330AE
:100288000310BD0DFF3E031D442903103D0DBE00A4
:10029800BE0E17083E06CF393E0697003908BD0046
:1002A8003A08BE003B08BF003C08C00002300310FB
:1002B800C00CBF0CBE0CBD0CFF3E031D5B293D08E6
:1002C800950008000A128A11E2220A128A110130E6
:1002D8000A128A115B250A128A1183120313C100BC
:1002E8004108E30005300A128A115B250A128A11B7
:1002F800FF3A0319882905300A128A115B250A1268
:100308008A11003A031D8A290130902905300A1202
:100318008A115B250A128A11831203138800AA29FD
:100328000A128A1180240A128A11AA2902309F29E6
:1003380003309F29043083120313C1004108F500DC
:1003480000300A128A11BB230A128A11831203137E
:10035800A201A20A01300A128A1190220A128A11F5
:10036800773083120313A3008030A4000A128A1185
:100378003F240A128A11831203136208003A0319F0
:100388009429013A03199A29033A03199C29013A35
:1003980003199E29AA29AA29003083120313B7003A
:1003A8000030B6000030B5000030B4002F082E042D
:1003B8002D042C040319272AB801B80AAF1BF22907
:1003C8000130F5000310AC0DAD0DAE0DAF0DF50B02
:1003D800E6290130F5007508B807E2290130F50073
:1003E8000310B40DB50DB60DB70DF50BF4292F0894
:1003F8003302031D092A2E083202031D092A2D087B
:100408003102031D092A2C083002031C1A2A2C0861
:10041800B0022D08031C2D0FB1022E08031C2E0F4D
:10042800B2022F08031C2F0FB3023414013003103B
:10043800AF0CAE0CAD0CAC0CFF3E031D1B2A0130FB
:10044800B802031DF2293708AF003608AE00350898
:10045800AD003408AC00080000300A128A119C254F
:100468000A128A11343083120313A300F130A20058
:10047800A20B3C2AA30B3C2A03300A128A118025BE
:100488000A128A110D3083120313A300FB30A20055
:10049800A20B4C2AA30B4C2A03300A128A1180257E
:1004A8000A128A111D3083120313A3009030A20090
:1004B800A20B5C2AA30B5C2A000003300A128A11E3
:1004C80080250A128A1102300A128A1180250A121E
:1004D8008A1102300A128A1180250A128A110830FC
:1004E8000A128A1180250A128A1100300A128A110A
:1004F80080250A128A110C300A128A1180250A12E4
:100508008A1100300A128A1180250A128A110630CF
:100518000A128A118025080083120313A5002503F7
:10052800031DB92A22087F3EA3002308A800280833
:10053800A30004300310A30CFF3E031D9E2A2308CA
:10054800A4002408A60028080F39A3002308A70040
:1005580026080A128A1180250A128A1183120313A7
:1005680027080A128A118025080002308312031313
:100578002506031D08002208BF3EA3002308A80083
:100588002808A30004300310A30CFF3E031DC72A4C
:100598002308A4002408A60028080F39A30023086C
:1005A800A70026080A128A1180250A128A118312C6
:1005B800031327080A128A11802508000A128A11D3
:1005C80044260A128A110A128A1133260A128A113B
:1005D8000A128A112D250A128A110A128A1130224A
:1005E8000A128A110A128A11B6250A128A110A12E7
:1005F8008A110E260A128A11003083120313BC00D6
:100608000030BB002730BA001030B9000A128A1136
:1006180076230A128A11003083120313BC000030BB
:10062800BB000030BA005030B9000A128A11F72016
:100638000A128A110A128A111D260A128A1100301A
:1006480083120313BC000030BB002530BA00803091
:10065800B9000A128A1131230800831603130717F9
:100668008717981618121813831203139817181659
:100678001813981518119810831603131815831654
:1006880003178715831203133C08AF003B08AE001D
:100698003A08AD003908AC000030B3007A30B20037
:1006A8001230B1000030B0000A128A11D0210A12AB
:1006B8008A11831203132C08BD002D08BE002E08D2
:1006C800BF002F08C00002300310C00CBF0CBE0CC6
:1006D800BD0CFF3E031D682B3D08FF3E8316031328
:1006E80099000800831603130715831203133908AA
:1006F800BD003A08BE003B08BF003C08C0000230FD
:100708000310BD0DBE0DBF0DC00DFF3E031D842B94
:100718004008AF003F08AE003E08AD003D08AC0001
:100728000030B3007A30B2001230B1000030B000AF
:100738000A128A11D021831203132C08FF3E831654
:10074800031392003F308312031397051708F039FB
:100758000C389700CF30970595018C10873092059B
:10076800FC30920512158316031307110800831233
:100778000313A200851206300A128A1129260A12CA
:100788008A11831203138516063083120313A100FE
:100798002F30A000A00BCE2BA10BCE2BD32B831276
:1007A8000313851202300A128A1129260A128A11A5
:1007B80000300A128A1129260A128A1175080A12AB
:1007C8008A1129260A128A118312031322080A128F
:1007D8008A1129260A128A118312031385160D30ED
:1007E80083120313A100FB30A000A00BF92BA10B6F
:1007F800F92B0800003083120313AB000030AA0065
:100808000030A9000030A800201C1E2C2408A807CE
:10081800250803110318013E031DA9072608031123
:100828000318013E031DAA07270803110318013EF8
:10083800031DAB070130F4000310A40DA50DA60D90
:10084800A70DF40B202C01300310A30CA20CA10C53
:10085800A00CFF3E031D282C230822042104200499
:10086800031D082C2B08A3002A08A2002908A100B0
:100878002808A000080083120313A801A90128086A
:100888002307A6002408A5000318A50AA81BA5038A
:10089800831203132508A7002708FF0026088400F1
:1008A8000A128A114B200A128A11003A0319080009
:1008B80028082307A6002408A5000318A50AA81BD2
:1008C800A503831203132508A7002708FF0026089D
:1008D80084000A128A114B200A128A110A128A11FC
:1008E800BE240A128A11013083120313A8070318C1
:1008F800A90A0030A907432C043083120313A5006A
:100908000C30A4003330A300A30B882CA40B882C34
:10091800A50B882C831203130808A300790A962CC8
:100928000310A30DFF3E031D942C230888000530F7
:10093800A3002308F50008080A128A11BB230A122B
:100948008A118030831203130806031D080004303F
:1009580083120313A5000C30A4003330A300A30BAB
:10096800B32CA40BB32CA50BB32C013083120313A7
:100978008800080083120313A20022080F39F5002B
:100988007508A0002208F039F5007508A100861640
:100998002108F50004300310F50CFF3E031DCF2C91
:1009A80075080A128A119C250A128A1183120313E8
:1009B80006161A30F500F50BDF2C0000831203131E
:1009C800061220080A128A119C250A128A1183121B
:1009D800031306161A30F500F50BF02C00008312ED
:1009E80003130612080053344E342C34593461343E
:1009F8006C34613420344434653476346934633477
:100A080065340D34003432343034313431343434D4
:100A1800783478347834783400343F3406345B34AE
:100A28004F3466346D347D3407347F346F34593431
:100A380061346C346134543465346334683400345C
:100A4800593461346C3461345434653463346834F3
:100A5800003483160313880183160317890183164C
:100A680003138601061786170711831603178810C4
:100A780008118811081283160313851005118511B2
:100A88000512831603170814881283160313051416
:100A9800871207168512871183120317881383128A
:100AA80003138501860187018801890108008312E3
:100AB8000313A000851203300A128A1129260A128C
:100AC8008A1100300A128A1129260A128A11831201
:100AD800031320080A128A1129260A128A110030E3
:100AE8000A128A1129268312031385161308F500A2
:100AF8007508A10021080800F50083120313861267
:100B080075080A128A119C250A128A118312031386
:100B180006160B3083120313A1006130A000A00B4E
:100B2800932DA10B932D982D831203130612080001
:100B3800F400741CA32D831203138615A62D8312AB
:100B480003138611F41CAA2D0615AB2D0611741D6E
:100B5800AF2D8614B02D8610F41DB42D0614080090
:100B680006100800831203131F083F3980389F00BE
:100B7800C3309F059F109F1CC52D831203139F141C
:100B8800C82D831203139F101F14831603139F1776
:100B98001F129F1208003034313432343334343465
:100BA80035340034533446342C3431340D34003465
:100BB80072342C3431340D34003424342434243445
:100BC8000D340034831603138C1EED2D831203138A
:100BD8000C088B1A0B1DF12D0B1173088312FF00E3
:100BE80072088A0071088400700E8300FE0E7E0E63
:100BF80009007E088A007F088200FD250A128A11F2
:100C08008000840A04087D0603190034FF0A0319CA
:100C1800FE0A012E8B160B11831603138112811104
:100C28000108F8390538810039308312031381002F
:100C38000800831203139416F030940594131412C9
:100C480083160313941714170800F400740883120A
:100C58000313930083160313141808002E2E8B1702
:100C68000B17831603138C16831203138C120800B8
:100C780064008001840A04060319003404063D2E2A
:0E0C88007730831603138F00900108000134AB
:04400E00F2E0FFFFDE
:00000001FF
