:100000000A128A1112280800FE00030EF0000408EC
:10001000F1000A08F200831203137F08F3000A12AA
:100020008A15792C0A128A1115288313CD30FD0008
:100030000C30FE00FA30FF00A03084000A128A154E
:10004000FE2383160313DC01DD01DE01DF01E00185
:10005000E101E201E30183120313EF01F701F8016B
:10006000F90183010A128A15CF2C83160313D500D8
:100070006C30CD004D08D000013083120313EB0724
:10008000FF306B0784000A128A150A200A128A11AF
:1000900083160313CD004D08D80058080319CE2944
:1000A00025305806031960285808CD0055088400EB
:1000B0004D08831380000130CD004D08D5073C2842
:1000C000D601D701D201831203136B0884000A12F0
:1000D0008A150A200A128A110A128A15CE230A12D8
:1000E0008A11031CC52883160313D601D7010A30D1
:1000F00083120313A0000030A100831603135708D6
:1001000083120313A30083160313560883120313E9
:10011000A2000A128A1556240A128A1183120313A6
:10012000210883160313D7008312031320088316B4
:100130000313D600831203136B0884000A128A1576
:100140000A200A128A11D03E83160313CD00FF3015
:1001500003180030CE004D08D6070318D70A4E0802
:10016000D7070130CD004D0883120313EB076B084E
:1001700084000A128A150A200A128A110A128A15A4
:10018000CE230A128A110318772801308312031331
:10019000EB07FF306B0784000A128A150A200A1247
:1001A0008A1183160313D800003A0319CE29643A42
:1001B0000319DE280D3A0319DE283C2883160313A1
:1001C0005008840083130008D300840A0008D40078
:1001D0000230CD004D08D007D41FF7280330CD00E2
:1001E0004D08D204D309D409D30A0319D40AD8017B
:1001F000D80A0530580603191E295808CD004D07A6
:10020000013E84000A128A150A200A128A11CE00C1
:100210000A128A150A200A128A11CF004F085402C6
:10022000031D14294E085302031C1E290130CD0062
:100230004D08D80705305806031DFD2856085704F9
:1002400003192C295208033903192C29FF30D6072A
:100250000318D70AFF30D7075808CD00CE01CD1BB1
:10026000CE034E08803ACF005708803A4F02031D54
:100270003B2956084D0203184B29831603135808CF
:10028000CD00CE01CD1BCE034D08D6024E08031C77
:10029000D703D7024F2983160313D601D701560877
:1002A0005704031968292030CD00550884004D08F3
:1002B000831380000130CD004D08D507FF30D607ED
:1002C0000318D70AFF30D70756085704031D5329D0
:1002D00052080339031977292D30CD0055088400C1
:1002E0004D08831380000130CD004D08D507580814
:1002F000CD004D08D100FF30CD004D08D107510A87
:1003000003193C280A3083120313A7000030A80009
:10031000831603135108CD004D07013E84000A12D5
:100320008A150A200A128A1183120313A0000A12E6
:100330008A150A200A128A11A10083160313540891
:1003400083120313A30083160313530883120313AA
:10035000A2000A128A15C8250A128A1183120313F1
:100360002108AA002008A9000A128A1527250A12C6
:100370008A11831203132708303E83160313CE001D
:100380004E08D8005808CD00550884004D08831346
:1003900080000130CD004D08D5077B29831603135B
:1003A0005508840083138001080083120313490851
:1003B000CF004A08D0004B08D1000310500D510D5A
:1003C000D2005208D5004C08CF004D08D0004E088E
:1003D000D1000310500D510DD2005208D400550821
:1003E0000319FE29540855020318052A5503FF3A3C
:1003F0005407CF0019304F02031C052A4C08C900CE
:100400004D08CA004E08CB00080054080319080024
:10041000550854020318142A5403FF3A5507CF0015
:1004200019304F02031808000630CF004F08D300E0
:10043000CB1BD317CE1B5317CA17FF30C905FF308C
:10044000CA050030CB05CD17FF30CC05FF30CD05F8
:100450000030CE05540855020318542A0130031009
:10046000CC0DCD0DCE0DFF3E031D2F2A0130D40241
:100470005408550603194F2A0130D302530807398F
:1004800003194F2A2E2A01300310CB0CCA0CC90CB9
:10049000FF3E031D442A0130CF004F08D507550801
:1004A000540603197D2A432A5508540203187D2A4D
:1004B00001300310C90DCA0DCB0DFF3E031D592A93
:1004C0000130D502540855060319792A0130D302A8
:1004D000530807390319792A582A01300310CE0C22
:1004E000CD0CCC0CFF3E031D6E2A0130CF004F080F
:1004F000D40755085406031D6D2AD31F8F2AFF30D9
:10050000C906FF30CA06FF30CB060130C9070030EC
:1005100003180130CA07003003180130CB07531FFE
:10052000A12AFF30CC06FF30CD06FF30CE060130C9
:10053000CC07003003180130CD070030031801301C
:10054000CE07D3014908CC074A08031103184A0A09
:10055000031DCD074B08031103184B0A031DCE07DB
:10056000CE1FC42AFF30CC06FF30CD06FF30CE06AA
:100570000130CC07003003180130CD0700300318DC
:100580000130CE07D301D30A4C08A0004D08A100CA
:100590004E08A2005508CF004F08A3005308D00012
:1005A0005008A4000A128A114E2683120313200851
:1005B000C9002108CA002208CB00080007308312B6
:1005C0000313E5007C30E400E40BE42AE50BE42AA5
:1005D0000000831203139F140C1FEC2A83160313CD
:1005E0001E0883120313E400640883160313E0005B
:1005F000831203131E08E400640883160313E1004A
:1006000083120313E901EA016A08803AFF0080308F
:100610007F02031D0D2B0A3069020318C42B8316B9
:1006200003136008DC070318DD0A6108DD070930E1
:100630008312031369066A04031DB32B0B30A00059
:100640000030A100831603135D0883120313A30077
:10065000831603135C0883120313A2000A128A157F
:10066000C8250A128A118312031321088316031363
:10067000DD0083120313200883160313DC005D08DA
:1006800083120313A600831603135C08831203135B
:10069000A5000A128A150B240A128A118312031369
:1006A0002508AC002608AD002708AE004030A900A0
:1006B0009C30AA004530AB000A128A11C6230A12E8
:1006C0008A11831203132908BC002A08BD002B08D5
:1006D000BE00C030B9007F30BA004430BB000A12FF
:1006E0008A1199240A128A11831203133908CC0043
:1006F0003A08CD003B08CE000030C900FA30CA00ED
:10070000C330CB000A128A11D5210A128A11831232
:1007100003134908E6004A08E7004B08E8006608AA
:10072000BC006708BD006808BE000030B90020307A
:10073000BA004130BB000A128A1199240A128A11A8
:10074000831203133908D6003A08D7003B08D800B3
:100750000A128A1151250A128A11831203135608AC
:10076000E4006408F7000130E9070318EA0A0030E2
:10077000EA076A08803AFF0080307F02031DC22B1F
:100780000A306902031C0F2B770808008312031339
:100790002908AF002A08B0002B08B1000310300D63
:1007A000310DB2003208B3003308031DDE2B0030D8
:1007B000A9000030AA000030AB0008002C08AF00F0
:1007C0002D08B0002E08B1000310300D310DB2001D
:1007D0003208B8003808031DF42B0030A90000309F
:1007E000AA000030AB00080038087B3EAF002F089D
:1007F000B3072908AF002A08B0002B08B100103059
:100800000310B10CB00CAF0CFF3E031D002C2F08E1
:10081000B2003208B8002C08AF002D08B0002E0836
:10082000B10010300310B10CB00CAF0CFF3E031D33
:10083000122C2F08B2003208B8068030AF002F0803
:10084000B805AA17AD17FF30AC05FF30AD05003075
:10085000AE050030B4000030B5000030B6000730FF
:10086000AF002F08B700291C432C2C08B4072D0813
:10087000031103182D0A031DB5072E0803110318D1
:100880002E0A031DB60701300310AB0CAA0CA90CED
:10089000FF3E031D442C01300310AC0DAD0DAE0D19
:1008A000FF3E031D4C2C0130B702031D332C0930D1
:1008B000AF002F08B700291C6B2C2C08B4072D089B
:1008C000031103182D0A031DB5072E080311031881
:1008D0002E0A031DB60701300310AB0CAA0CA90C9D
:1008E000FF3E031D6C2C01300310B60CB50CB40C8C
:1008F000FF3E031D742C0130B702031D5B2C34082E
:10090000A0003508A1003608A2003308AF002F0868
:10091000A3003808B0003008A4000A128A114E263D
:10092000831203132008A9002108AA002208AB00A3
:100930000800831203133C08BF003D08C0003E08B6
:10094000C1000310400D410DC2004208C700470816
:10095000031DB12C0030B9000030BA000030BB00DC
:1009600008003908BF003A08C0003B08C100031066
:10097000400D410DC2004208C8004808031DC72CA5
:100980000030B9000030BA000030BB000800003071
:10099000C4000030C5000030C60089304807BF00E1
:1009A0003F08C7023C08BF003D08C0003E08C10028
:1009B00010300310C10CC00CBF0CFF3E031DD92C1E
:1009C0003F08C2004208C8003908BF003A08C0000A
:1009D0003B08C10010300310C10CC00CBF0CFF3E1F
:1009E000031DEB2C3F08C2004208C8068030BF0040
:1009F0003F08C805BD17FF30BC05FF30BD050030FE
:100A0000BE05BA17FF30B905FF30BA050030BB0587
:100A10001830BF003F08C30001300310C40DC50DDE
:100A2000C60DFF3E031D0D2D3B083E02031D1E2D6E
:100A30003A083D02031D1E2D39083C02031C2B2DD4
:100A40003908BC023A08031C3A0FBD023B08031CDC
:100A50003B0ABE02441401300310BC0DBD0DBE0D97
:100A6000FF3E031D2C2D0130C302031D0C2D440835
:100A7000A0004508A1004608A2004708BF003F08A3
:100A8000A3004808C0004008A4000A128A114E269C
:100A9000831203132008B9002108BA002208BB0002
:100AA0000800831203135608DA005708DB005808C1
:100AB000DC0003105B0D5C0DDD005D08E3006308E6
:100AC000031D6B2D0030D9000030D8000030D70056
:100AD0000030D60008005608DA005708DB00580836
:100AE000DC0017300310DC0CDB0CDA0CFF3E031DBE
:100AF000722D5A08DD005D08DE00D717FF30D605DD
:100B0000FF30D7050030D8055608DF005708E00051
:100B10005808E100E2018E30E302E31FAD2D6308C7
:100B2000803A8F3E03189D2D0030D9000030D80048
:100B30000030D7000030D600080001300310E20C6E
:100B4000E10CE00CDF0CFF3E031D9E2D0130DA00AE
:100B50005A08E3070319C82D9D2D18306302031CA2
:100B6000C52D0030D9000030D8000030D70000304B
:100B7000D60008000130DA000310DF0DE00DE10DB2
:100B8000E20DDA0BBC2D0130E3026308031DBA2D20
:100B90005E080319D62DDF09E009E109E209DF0A41
:100BA0000319E00A0319E10A0319E20A6208D900ED
:100BB0006108D8006008D7005F08D6000800003040
:100BC00083120313AF000030AE000030AD0064307C
:100BD000AC0083160313120883120313BD00BE0179
:100BE0000310BD0DBE0D0310BD0DBE0D3D08043E2E
:100BF000A0003E080318013E003EA100A201A11B77
:100C0000A2032208A3003C08A7003B08A6003A085C
:100C1000A5003908A4000A128A1546260A128A116C
:100C2000831203132308B3002208B2002108B10085
:100C30002008B0000A128A1186270A128A1183122C
:100C400003132F08BC002E08BB002D08BA002C0887
:100C5000B9003908BD0003300310BD0DFF3E031D70
:100C60002C2E03103D0DBE00BE0E17083E06CF39D8
:100C70003E0697003908BD003A08BE003B08BF0099
:100C80003C08C00002300310C00CBF0CBE0CBD0CF1
:100C9000FF3E031D432E3D089500080083120313F9
:100CA00023080319582E220821042004031D6B2E4B
:100CB0000030A0000030A1000030A2000800013088
:100CC000F4007408A30701300310A20CA10CA00CBF
:100CD000FF3E031D642EFE3022050319862E5F2E73
:100CE0000130F4007408A3070130A0070030031896
:100CF0000130A107003003180130A20701300310B2
:100D0000A20CA10CA00CFF3E031D7F2EFF3022057C
:100D10000319952E702E0130A30201300310A00D8F
:100D2000A10DA20DFF3E031D8E2EA11B9B2E023096
:100D3000230203188B2E2318A32EFF30A0057F302B
:100D4000A105FF30A2050310A30C2308F400F50150
:100D5000F60110300310F40DF50DF60DFF3E031DE6
:100D6000AA2E7408A0047508A1047608A204240819
:100D700003190800A217080083120313AE01AF0184
:100D80008C1AF42E0A128A15C0230A128A117408CA
:100D900083120313A8007508A900AA01AB012E084D
:100DA000AC0001300310AC0DFF3E031DD22E03102A
:100DB0002C0D6F07AD002D088400280883138000D8
:100DC000840A29088000840A2A088000840A2B08E3
:100DD00080008C1EED2EF801F80A0130AE070318D2
:100DE000AF0A0030AF07C02E861BF92E7808031912
:100DF0000800B001B101831603139818232F831242
:100E00003008A80001300310A80DFF3E031D032F7A
:100E10000310280D6F07A900290884008313000818
:100E2000A000840A00088403A1000A128A155B2529
:100E30000A128A11013083120313B0070318B10A92
:100E40000030B107FB2EF801080000300A128A15A5
:100E50003C240A128A111A3083120313A200F730BD
:100E6000A100A10B312FA20B312F362F03300A1214
:100E70008A11E6270A128A11073083120313A2008F
:100E80007C30A100A10B422FA20B422F00000330A7
:100E90000A128A11E6270A128A110F3083120313ED
:100EA000A2004730A100A10B532FA20B532F0330F8
:100EB0000A128A11E6270A128A1102300A128A11CE
:100EC000E6270A128A1102300A128A11E6270A124C
:100ED0008A1108300A128A11E6270A128A11003094
:100EE0000A128A11E6270A128A110C300A128A1194
:100EF000E6270A128A1100300A128A11E6270A121E
:100F00008A1106300A128A11E6270800003083127F
:100F10000313B7000030B6000030B5000030B40055
:100F20002F082E042D042C040319DD2FB801B80A54
:100F3000AF1BA82F0130F5000310AC0DAD0DAE0DA9
:100F4000AF0DF50B9C2F0130F5007508B807982FF1
:100F50000130F5000310B40DB50DB60DB70DF50B4E
:100F6000AA2F2F083302031DBF2F2E083202031DA4
:100F7000BF2F2D083102031DBF2F2C083002031C88
:100F8000D02F2C08B0022D08031C2D0FB1022E0803
:100F9000031C2E0FB2022F08031C2F0FB3023414B0
:100FA00001300310AF0CAE0CAD0CAC0CFF3E031DBA
:100FB000D12F0130B802031DA82F3708AF00360823
:100FC000AE003508AD003408AC00080083120313EE
:100FD000A000861220080A128A153C240A128A11DF
:100FE0008312031306160630F6003030F500F50BB9
:100FF000F72FF60BF72F00008312031306120800D9
:10100000FF1B0A2883137F1883170008840A03191B
:10101000FF0A080008308A000408840A82070034A6
:10102000013400340A34003464340034E8340334C6
:1010300010342734543465346D347034653472346C
:10104000613474347534723465343A340034253480
:0610500033346434003467
:10174A00831603138F019001080083160313981C54
:10175A00AA2B740883120313990008008312031337
:10176A009416F03094059413831603138C15831280
:10177A0003138C110800831203138C1A08008312B6
:10178A0003131A08A000A1012008F4002108F5009B
:10179A000800F500F4013A3075020318DA2B3030EC
:1017AA007502031CDA2BF401F40A740C08008B1777
:1017BA000B17831603130C17831203130C138316C8
:1017CA0003138C16831203138C1208008B160B1149
:1017DA0083160313811281110108F8390538810033
:1017EA00643083120313810008007E088A007F0890
:1017FA008200FA230A128A158000840A04087D06E8
:10180A0003190034FF0A0319FE0AFE2B831203137D
:10181A002508A0002608A100A2018E30A8002808E9
:10182A00A300A4010A128A114E2683120313200868
:10183A00A5002108A6002208A700080083120313A6
:10184A001F083F3940389F00C3309F059F109F1CD7
:10185A00322C831203139F14352C831203139F1007
:10186A001F14831603139F171F129F120800F400F8
:10187A00741C432C831203138615462C83120313FC
:10188A008611F41C4A2C06154B2C0611741D4F2C7C
:10189A008614502C8610F41D542C061408000610C9
:1018AA000800F401F50183120313201C622C22089C
:1018BA00F4070318F50A2308F50701300310A20DEF
:1018CA00A30DFF3E031D632C01300310A10CA00CD5
:1018DA00FF3E031D6A2C20082104031D582C75089D
:1018EA00A1007408A0000800831603138C1E822C22
:1018FA00831203138C1E822C8C12831603130C1F63
:10190A008B2C831203130C1F8B2C0C138B1A0B1D9D
:10191A008F2C0B11831603138C1D982C831203131F
:10192A008C1D982C8C1173088312FF0072088A0090
:10193A0071088400700E8300FE0E7E0E0900831665
:10194A00031388018316031789018316031386017B
:10195A0006178617071183160317881008118811AE
:10196A0008128316031385100511851105128316B3
:10197A00031708148812831603130514871207160F
:10198A008512871183120313850186018701880155
:10199A00890108000A128A150D270A128A15E02CF5
:1019AA000A128A11BC260A128A15E02C0A128A1116
:1019BA0003200A128A150A128A15AA270A128A15F8
:1019CA007908003A0319D52C013A0319DB2C033A9A
:1019DA000319E02C063A0319E02C013A0319E02C0A
:1019EA00033A0319E02CE02CE02C32343034313441
:1019FA0031343434783478347834783400343F34B9
:101A0A0006345B344F3466346D347D3407347F34A6
:101A1A006F34593461346C3461345434653463340A
:101A2A0068340034593461346C3461345434653464
:101A3A006334683400343034313432343334343437
:101A4A003534003483120313270828040319562D4A
:101A5A00F601F60AA81B3D2D01300310A70DA80DAB
:101A6A00FF3E031D322D0130F5007508F6072F2DB4
:101A7A0028082A02031D432D27082902031C4B2D7F
:101A8A002708A9022808031CAA03AA020130031086
:101A9A00A80CA70CFF3E031D4C2D0130F602031DB6
:101AAA003D2D2A08A8002908A7000800831203135D
:101ABA00A601A70126082007A20027080318270A5B
:101ACA002107A300220884008317231C831300081C
:101ADA000319080026082007A20027080318270A66
:101AEA002107A300220884008317231C83130008FC
:101AFA00A400A5012408F4002508F5000A128A1595
:101B0A00AA230A128A15013083120313A60703189F
:101B1A00A70A0030A7075F2D83120313A200220829
:101B2A000F39F5007508A0002208F039F50075088C
:101B3A00A10086162108F50004300310F50CFF3EBB
:101B4A00031DA22D75080A128A153C240A128A1549
:101B5A008312031306160D30F500F50BB22D83120E
:101B6A000313061220080A128A153C240A128A153F
:101B7A008312031306160D30F500F50BC22D8312DE
:101B8A0003130612080083120313A501A6012008F5
:101B9A0021040319012EA401A40AA11BE02D01307E
:101BAA000310A00DA10DFF3E031DD52D0130F40039
:101BBA007408A407D22D01300310A50DA60DFF3E0F
:101BCA00031DE12D21082302031DED2D2008220209
:101BDA00031CF62D2008A2022108031CA303A3025A
:101BEA00251401300310A10CA00CFF3E031DF72D94
:101BFA000130A402031DE02D2608A1002508A0003B
:101C0A000800831603130717871798161812181354
:101C1A00831203139817181618138316031318152B
:101C2A00831603178711831203133908AC003A0885
:101C3A00AD00AE01AF010030B3003D30B200093053
:101C4A00B1000030B0000A128A1186270A128A15DA
:101C5A00831203132C08BB002D08BC002E08BD00FC
:101C6A002F08BE0004300310BE0CBD0CBC0CBB0C0C
:101C7A00FF3E031D382E3B08FF3E831603139900CF
:101C8A000800003083120313AB000030AA000030B2
:101C9A00A9000030A800201C662E2408A8072508E1
:101CAA0003110318013E031DA9072608031103188F
:101CBA00013E031DAA07270803110318013E031D4D
:101CCA00AB070130F4000310A40DA50DA60DA70D56
:101CDA00F40B682E01300310A30CA20CA10CA00C6B
:101CEA00FF3E031D702E2308220421042004031D35
:101CFA00502E2B08A3002A08A2002908A1002808B0
:101D0A00A000080083120313A801A90128082307C9
:101D1A00A6002408A5000318A50AA81BA503831278
:101D2A0003132508A7002708FF00260884000A12C3
:101D3A008A1500200A128A15003A03190800280891
:101D4A002307A6002408A5000318A50AA81BA503B3
:101D5A00831203132508A7002708FF00260884001A
:101D6A000A128A1500200A128A150A128A15912562
:101D7A000A128A15013083120313A8070318A90A45
:101D8A000030A9078B2E831603130715831203133A
:101D9A003908BD003A08BE003B08BF003C08C00035
:101DAA0002300310BD0DBE0DBF0DC00DFF3E031D59
:101DBA00D62E4008AF003F08AE003E08AD003D08F1
:101DCA00AC000030B3003D30B2000930B100003041
:101DDA00B0000A128A118627831203132C08FF3EC9
:101DEA008316031392003F308312031397051708D3
:101DFA00F0390C389700CF30970595018C10873051
:101E0A009205FC3092051215831603130711080078
:101E1A000A128A15A5230A128A150A128A15DC23C0
:101E2A000A128A150A128A15A4240A128A150A1293
:101E3A008A1125270A128A150A128A1523240A12D8
:101E4A008A150A128A15EB230A128A1500308312A0
:101E5A000313BC000030BB002730BA001030B900B1
:101E6A000A128A15C8260A128A1500308312031329
:101E7A00BC000030BB000030BA004630B9000A127C
:101E8A008A11DF250A128A150A128A15B3230A1241
:101E9A008A15803083120313B9002530BA000A125A
:101EAA008A150626080083120313A4002403031DBF
:101EBA00812F21087F3EA2002208A7002708A2003E
:101ECA0004300310A20CFF3E031D662F2208A30054
:101EDA002308A50027080F39A2002208A600250812
:101EEA000A128A11E6270A128A1583120313260890
:101EFA000A128A11E6270800023083120313240605
:101F0A00031D08002108BF3EA2002208A7002708D7
:101F1A00A20004300310A20CFF3E031D8F2F2208DB
:101F2A00A3002308A50027080F39A2002208A6004B
:101F3A0025080A128A11E6270A128A158312031340
:101F4A0026080A128A11E62708000B3083160313A3
:101F5A00D900590883120313EE00A101A10A013026
:101F6A000A128A1558270A128A15831203136E0851
:101F7A00A3000030031D8030A4000A128A158726A8
:101F8A000A128A15183083160313D90059088312C6
:101F9A000313EB000A128A11DE220A128A1583162B
:101FAA000313DA00DB015A0883120313EC008316C9
:101FBA0003135B0883120313ED00E2300A128A113D
:101FCA0035200A128A150D3083160313D9005908D1
:101FDA0083120313A10001300A128A1558270A1224
:101FEA008A15E23083120313A3000030A4000A12F8
:061FFA008A15872608008D
:04400E00F2FCFFFFC2
:00000001FF
